{
  "contractName": "StockLedger",
  "abi": [
    {
      "constant": false,
      "inputs": [
        {
          "name": "_issuancenumber",
          "type": "uint256"
        },
        {
          "name": "_newnumberofshares",
          "type": "uint256"
        },
        {
          "name": "_orderid",
          "type": "string"
        },
        {
          "name": "_transactiondate",
          "type": "uint256"
        }
      ],
      "name": "registerIssuanceResize",
      "outputs": [
        {
          "name": "_txnumber",
          "type": "uint256"
        }
      ],
      "payable": true,
      "stateMutability": "payable",
      "type": "function"
    },
    {
      "constant": true,
      "inputs": [
        {
          "name": "_index",
          "type": "uint256"
        }
      ],
      "name": "getIssuanceAt",
      "outputs": [
        {
          "name": "_numberofshares",
          "type": "uint256"
        },
        {
          "name": "_percentofcapital",
          "type": "uint256"
        },
        {
          "name": "_issuance_date",
          "type": "uint256"
        },
        {
          "name": "_block_date",
          "type": "uint256"
        },
        {
          "name": "_name",
          "type": "string"
        },
        {
          "name": "_cocrypted_description",
          "type": "string"
        },
        {
          "name": "_cancel_date",
          "type": "uint256"
        },
        {
          "name": "_cancel_block_date",
          "type": "uint256"
        }
      ],
      "payable": false,
      "stateMutability": "view",
      "type": "function"
    },
    {
      "constant": true,
      "inputs": [
        {
          "name": "_shldr_address",
          "type": "address"
        }
      ],
      "name": "findShareHolderNumber",
      "outputs": [
        {
          "name": "_number",
          "type": "int256"
        }
      ],
      "payable": false,
      "stateMutability": "view",
      "type": "function"
    },
    {
      "constant": true,
      "inputs": [],
      "name": "getTransactionCount",
      "outputs": [
        {
          "name": "_count",
          "type": "uint256"
        }
      ],
      "payable": false,
      "stateMutability": "view",
      "type": "function"
    },
    {
      "constant": true,
      "inputs": [],
      "name": "owner_pubkey",
      "outputs": [
        {
          "name": "",
          "type": "string"
        }
      ],
      "payable": false,
      "stateMutability": "view",
      "type": "function"
    },
    {
      "constant": true,
      "inputs": [
        {
          "name": "_index",
          "type": "uint256"
        }
      ],
      "name": "getShareHolderAt",
      "outputs": [
        {
          "name": "_shldr_address",
          "type": "address"
        },
        {
          "name": "_shldr_pubkey",
          "type": "string"
        },
        {
          "name": "_cocrypted_shldr_privkey",
          "type": "string"
        },
        {
          "name": "_cocrypted_shldr_identifier",
          "type": "string"
        },
        {
          "name": "_registration_date",
          "type": "uint256"
        },
        {
          "name": "_block_date",
          "type": "uint256"
        },
        {
          "name": "_replaced_by",
          "type": "address"
        },
        {
          "name": "_replacement_date",
          "type": "uint256"
        },
        {
          "name": "_replacement_block_date",
          "type": "uint256"
        }
      ],
      "payable": false,
      "stateMutability": "view",
      "type": "function"
    },
    {
      "constant": true,
      "inputs": [
        {
          "name": "_orderid",
          "type": "string"
        }
      ],
      "name": "findTransaction",
      "outputs": [
        {
          "name": "_txindex",
          "type": "int256"
        }
      ],
      "payable": false,
      "stateMutability": "view",
      "type": "function"
    },
    {
      "constant": true,
      "inputs": [],
      "name": "ledger_name",
      "outputs": [
        {
          "name": "",
          "type": "string"
        }
      ],
      "payable": false,
      "stateMutability": "view",
      "type": "function"
    },
    {
      "constant": false,
      "inputs": [
        {
          "name": "_shldr_address",
          "type": "address"
        },
        {
          "name": "_shldr_pubkey",
          "type": "string"
        },
        {
          "name": "_cocrypted_shldr_privkey",
          "type": "string"
        },
        {
          "name": "_cocrypted_shldr_identifier",
          "type": "string"
        },
        {
          "name": "_registration_date",
          "type": "uint256"
        }
      ],
      "name": "registerShareHolder",
      "outputs": [
        {
          "name": "_shldrindex",
          "type": "uint256"
        }
      ],
      "payable": true,
      "stateMutability": "payable",
      "type": "function"
    },
    {
      "constant": false,
      "inputs": [
        {
          "name": "_index",
          "type": "uint256"
        },
        {
          "name": "_shldr_address",
          "type": "address"
        },
        {
          "name": "_shldr_pubkey",
          "type": "string"
        },
        {
          "name": "_shldr_cocrypted_shldr_key",
          "type": "string"
        },
        {
          "name": "_shldr_cocrypted_shldr_identifier",
          "type": "string"
        },
        {
          "name": "_shldr_registration_date",
          "type": "uint256"
        }
      ],
      "name": "registerShareHolderReplacementAt",
      "outputs": [
        {
          "name": "_shldrindex",
          "type": "uint256"
        }
      ],
      "payable": true,
      "stateMutability": "payable",
      "type": "function"
    },
    {
      "constant": true,
      "inputs": [
        {
          "name": "",
          "type": "uint256"
        }
      ],
      "name": "stocktransactions",
      "outputs": [
        {
          "name": "from",
          "type": "address"
        },
        {
          "name": "to",
          "type": "address"
        },
        {
          "name": "transactiondate",
          "type": "uint256"
        },
        {
          "name": "block_date",
          "type": "uint256"
        },
        {
          "name": "nature",
          "type": "uint8"
        },
        {
          "name": "issuanceindex",
          "type": "uint256"
        },
        {
          "name": "orderid",
          "type": "string"
        },
        {
          "name": "numberofshares",
          "type": "uint256"
        },
        {
          "name": "consideration",
          "type": "uint256"
        },
        {
          "name": "currency",
          "type": "string"
        }
      ],
      "payable": false,
      "stateMutability": "view",
      "type": "function"
    },
    {
      "constant": true,
      "inputs": [],
      "name": "owner",
      "outputs": [
        {
          "name": "",
          "type": "address"
        }
      ],
      "payable": false,
      "stateMutability": "view",
      "type": "function"
    },
    {
      "constant": true,
      "inputs": [
        {
          "name": "_shldr_address",
          "type": "address"
        },
        {
          "name": "_issuancenumber",
          "type": "uint256"
        }
      ],
      "name": "getShareHolderPosition",
      "outputs": [
        {
          "name": "_position",
          "type": "uint256"
        }
      ],
      "payable": false,
      "stateMutability": "view",
      "type": "function"
    },
    {
      "constant": true,
      "inputs": [
        {
          "name": "_index",
          "type": "uint256"
        }
      ],
      "name": "getTransactionAt",
      "outputs": [
        {
          "name": "_from",
          "type": "address"
        },
        {
          "name": "_to",
          "type": "address"
        },
        {
          "name": "_transactiondate",
          "type": "uint256"
        },
        {
          "name": "_block_date",
          "type": "uint256"
        },
        {
          "name": "_nature",
          "type": "uint8"
        },
        {
          "name": "_issuancenumber",
          "type": "uint256"
        },
        {
          "name": "_orderid",
          "type": "string"
        },
        {
          "name": "_numberofshares",
          "type": "uint256"
        },
        {
          "name": "_consideration",
          "type": "uint256"
        },
        {
          "name": "_currency",
          "type": "string"
        }
      ],
      "payable": false,
      "stateMutability": "view",
      "type": "function"
    },
    {
      "constant": true,
      "inputs": [],
      "name": "getIssuanceCount",
      "outputs": [
        {
          "name": "_count",
          "type": "uint256"
        }
      ],
      "payable": false,
      "stateMutability": "view",
      "type": "function"
    },
    {
      "constant": true,
      "inputs": [],
      "name": "contract_version",
      "outputs": [
        {
          "name": "",
          "type": "uint256"
        }
      ],
      "payable": false,
      "stateMutability": "view",
      "type": "function"
    },
    {
      "constant": false,
      "inputs": [
        {
          "name": "_numberofshares",
          "type": "uint256"
        },
        {
          "name": "_from",
          "type": "address"
        },
        {
          "name": "_to",
          "type": "address"
        },
        {
          "name": "_issuancenumber",
          "type": "uint256"
        },
        {
          "name": "_orderid",
          "type": "string"
        },
        {
          "name": "_transaction_unixtime",
          "type": "uint256"
        },
        {
          "name": "_consideration",
          "type": "uint256"
        },
        {
          "name": "_currency",
          "type": "string"
        }
      ],
      "name": "recordTransfer",
      "outputs": [
        {
          "name": "_txnumber",
          "type": "uint256"
        }
      ],
      "payable": true,
      "stateMutability": "payable",
      "type": "function"
    },
    {
      "constant": true,
      "inputs": [],
      "name": "replaced_by",
      "outputs": [
        {
          "name": "",
          "type": "address"
        }
      ],
      "payable": false,
      "stateMutability": "view",
      "type": "function"
    },
    {
      "constant": true,
      "inputs": [],
      "name": "cocrypted_ledger_description",
      "outputs": [
        {
          "name": "",
          "type": "string"
        }
      ],
      "payable": false,
      "stateMutability": "view",
      "type": "function"
    },
    {
      "constant": true,
      "inputs": [],
      "name": "contract_name",
      "outputs": [
        {
          "name": "",
          "type": "string"
        }
      ],
      "payable": false,
      "stateMutability": "view",
      "type": "function"
    },
    {
      "constant": false,
      "inputs": [
        {
          "name": "_numberofshares",
          "type": "uint256"
        },
        {
          "name": "_from",
          "type": "address"
        },
        {
          "name": "_to",
          "type": "address"
        },
        {
          "name": "_nature",
          "type": "uint8"
        },
        {
          "name": "_issuancenumber",
          "type": "uint256"
        },
        {
          "name": "_orderid",
          "type": "string"
        },
        {
          "name": "_transaction_unixtime",
          "type": "uint256"
        },
        {
          "name": "_consideration",
          "type": "uint256"
        },
        {
          "name": "_currency",
          "type": "string"
        }
      ],
      "name": "registerTransaction",
      "outputs": [
        {
          "name": "_txnumber",
          "type": "uint256"
        }
      ],
      "payable": true,
      "stateMutability": "payable",
      "type": "function"
    },
    {
      "constant": false,
      "inputs": [
        {
          "name": "_tranfertxnnumber",
          "type": "uint256"
        },
        {
          "name": "_orderid",
          "type": "string"
        },
        {
          "name": "_transaction_unixtime",
          "type": "uint256"
        }
      ],
      "name": "registerTransfer",
      "outputs": [
        {
          "name": "_txnumber",
          "type": "uint256"
        }
      ],
      "payable": true,
      "stateMutability": "payable",
      "type": "function"
    },
    {
      "constant": false,
      "inputs": [
        {
          "name": "_name",
          "type": "string"
        },
        {
          "name": "_cocrypted_description",
          "type": "string"
        },
        {
          "name": "_numberofshares",
          "type": "uint256"
        },
        {
          "name": "_percentofcapital",
          "type": "uint256"
        },
        {
          "name": "_issuance_unixtime",
          "type": "uint256"
        },
        {
          "name": "_orderid",
          "type": "string"
        }
      ],
      "name": "registerIssuance",
      "outputs": [
        {
          "name": "_issuancenumber",
          "type": "uint256"
        }
      ],
      "payable": true,
      "stateMutability": "payable",
      "type": "function"
    },
    {
      "constant": true,
      "inputs": [],
      "name": "getShareHolderCount",
      "outputs": [
        {
          "name": "_count",
          "type": "uint256"
        }
      ],
      "payable": false,
      "stateMutability": "view",
      "type": "function"
    },
    {
      "inputs": [
        {
          "name": "_owner",
          "type": "address"
        },
        {
          "name": "_owner_pubkey",
          "type": "string"
        },
        {
          "name": "_cocrypted_owner_identifier",
          "type": "string"
        },
        {
          "name": "_ledger_name",
          "type": "string"
        },
        {
          "name": "_cocrypted_ledger_description",
          "type": "string"
        }
      ],
      "payable": false,
      "stateMutability": "nonpayable",
      "type": "constructor"
    }
  ],
  "bytecode": "0x606060405234156200001057600080fd5b60405162003d4438038062003d448339810160405280805190602001909190805182019190602001805182019190602001805182019190602001805182019190505060006040805190810160405280600b81526020017f73746f636b6c656467657200000000000000000000000000000000000000000081525060009080519060200190620000a1929190620002a7565b50630133ec856001819055506000600860006101000a81548173ffffffffffffffffffffffffffffffffffffffff021916908373ffffffffffffffffffffffffffffffffffffffff16021790555085600260006101000a81548173ffffffffffffffffffffffffffffffffffffffff021916908373ffffffffffffffffffffffffffffffffffffffff160217905550846003908051906020019062000148929190620002a7565b50826004908051906020019062000161929190620002a7565b5081600590805190602001906200017a929190620002a7565b506001600b816200018c91906200032e565b50600b60008154811015156200019e57fe5b90600052602060002090600902019050858160000160006101000a81548173ffffffffffffffffffffffffffffffffffffffff021916908373ffffffffffffffffffffffffffffffffffffffff160217905550848160010190805190602001906200020b929190620002a7565b506040805190810160405280600281526020017f30780000000000000000000000000000000000000000000000000000000000008152508160020190805190602001906200025b929190620002a7565b508381600301908051906020019062000276929190620002a7565b506000600c8162000288919062000363565b506000600d816200029a919062000398565b505050505050506200064d565b828054600181600116156101000203166002900490600052602060002090601f016020900481019282601f10620002ea57805160ff19168380011785556200031b565b828001600101855582156200031b579182015b828111156200031a578251825591602001919060010190620002fd565b5b5090506200032a9190620003cd565b5090565b8154818355818115116200035e576009028160090283600052602060002091820191016200035d9190620003f5565b5b505050565b8154818355818115116200039357600802816008028360005260206000209182019101620003929190620004bb565b5b505050565b815481835581811511620003c857600a0281600a028360005260206000209182019101620003c7919062000531565b5b505050565b620003f291905b80821115620003ee576000816000905550600101620003d4565b5090565b90565b620004b891905b80821115620004b457600080820160006101000a81549073ffffffffffffffffffffffffffffffffffffffff02191690556001820160006200043f919062000601565b60028201600062000451919062000601565b60038201600062000463919062000601565b600482016000905560058201600090556006820160006101000a81549073ffffffffffffffffffffffffffffffffffffffff02191690556007820160009055600882016000905550600901620003fc565b5090565b90565b6200052e91905b808211156200052a57600080820160009055600182016000905560028201600090556003820160009055600482016000620004fe919062000601565b60058201600062000510919062000601565b6006820160009055600782016000905550600801620004c2565b5090565b90565b620005fe91905b80821115620005fa57600080820160006101000a81549073ffffffffffffffffffffffffffffffffffffffff02191690556001820160006101000a81549073ffffffffffffffffffffffffffffffffffffffff0219169055600282016000905560038201600090556004820160006101000a81549060ff02191690556005820160009055600682016000620005ce919062000601565b60078201600090556008820160009055600982016000620005f0919062000601565b50600a0162000538565b5090565b90565b50805460018160011615610100020316600290046000825580601f106200062957506200064a565b601f016020900490600052602060002090810190620006499190620003cd565b5b50565b6136e7806200065d6000396000f30060606040526004361061013e576000357c0100000000000000000000000000000000000000000000000000000000900463ffffffff1680630628263c1461014357806309868914146101c45780632665acbe146102f65780632e7700f01461034357806332fe122f1461036c5780633c8c9143146103fa5780634c020730146105f05780635cd373271461066157806379a7be13146106ef5780637bf472d114610803578063866f5d85146109205780638da5cb5b14610af85780638edfef3114610b4d5780639292260e14610ba3578063ae82d65c14610d41578063b32c65c814610d6a578063c3ca26b714610d93578063c8a6baa714610e9e578063d6cbadac14610ef3578063d947969214610f81578063df837af11461100f578063e2fc63c814611126578063e86e59fa1461119e578063f7044bae146112a5575b600080fd5b6101ae600480803590602001909190803590602001909190803590602001908201803590602001908080601f016020809104026020016040519081016040528093929190818152602001838380828437820191505050505050919080359060200190919050506112ce565b6040518082815260200191505060405180910390f35b34156101cf57600080fd5b6101e56004808035906020019091905050611710565b604051808981526020018881526020018781526020018681526020018060200180602001858152602001848152602001838103835287818151815260200191508051906020019080838360005b8381101561024d578082015181840152602081019050610232565b50505050905090810190601f16801561027a5780820380516001836020036101000a031916815260200191505b50838103825286818151815260200191508051906020019080838360005b838110156102b3578082015181840152602081019050610298565b50505050905090810190601f1680156102e05780820380516001836020036101000a031916815260200191505b509a505050505050505050505060405180910390f35b341561030157600080fd5b61032d600480803573ffffffffffffffffffffffffffffffffffffffff169060200190919050506118e3565b6040518082815260200191505060405180910390f35b341561034e57600080fd5b6103566119b0565b6040518082815260200191505060405180910390f35b341561037757600080fd5b61037f6119bd565b6040518080602001828103825283818151815260200191508051906020019080838360005b838110156103bf5780820151818401526020810190506103a4565b50505050905090810190601f1680156103ec5780820380516001836020036101000a031916815260200191505b509250505060405180910390f35b341561040557600080fd5b61041b6004808035906020019091905050611a5b565b604051808a73ffffffffffffffffffffffffffffffffffffffff1673ffffffffffffffffffffffffffffffffffffffff1681526020018060200180602001806020018981526020018881526020018773ffffffffffffffffffffffffffffffffffffffff1673ffffffffffffffffffffffffffffffffffffffff16815260200186815260200185815260200184810384528c818151815260200191508051906020019080838360005b838110156104df5780820151818401526020810190506104c4565b50505050905090810190601f16801561050c5780820380516001836020036101000a031916815260200191505b5084810383528b818151815260200191508051906020019080838360005b8381101561054557808201518184015260208101905061052a565b50505050905090810190601f1680156105725780820380516001836020036101000a031916815260200191505b5084810382528a818151815260200191508051906020019080838360005b838110156105ab578082015181840152602081019050610590565b50505050905090810190601f1680156105d85780820380516001836020036101000a031916815260200191505b509c5050505050505050505050505060405180910390f35b34156105fb57600080fd5b61064b600480803590602001908201803590602001908080601f01602080910402602001604051908101604052809392919081815260200183838082843782019150505050505091905050611d18565b6040518082815260200191505060405180910390f35b341561066c57600080fd5b610674611d9f565b6040518080602001828103825283818151815260200191508051906020019080838360005b838110156106b4578082015181840152602081019050610699565b50505050905090810190601f1680156106e15780820380516001836020036101000a031916815260200191505b509250505060405180910390f35b6107ed600480803573ffffffffffffffffffffffffffffffffffffffff1690602001909190803590602001908201803590602001908080601f0160208091040260200160405190810160405280939291908181526020018383808284378201915050505050509190803590602001908201803590602001908080601f0160208091040260200160405190810160405280939291908181526020018383808284378201915050505050509190803590602001908201803590602001908080601f01602080910402602001604051908101604052809392919081815260200183838082843782019150505050505091908035906020019091905050611e3d565b6040518082815260200191505060405180910390f35b61090a600480803590602001909190803573ffffffffffffffffffffffffffffffffffffffff1690602001909190803590602001908201803590602001908080601f0160208091040260200160405190810160405280939291908181526020018383808284378201915050505050509190803590602001908201803590602001908080601f0160208091040260200160405190810160405280939291908181526020018383808284378201915050505050509190803590602001908201803590602001908080601f01602080910402602001604051908101604052809392919081815260200183838082843782019150505050505091908035906020019091905050612019565b6040518082815260200191505060405180910390f35b341561092b57600080fd5b61094160048080359060200190919050506120aa565b604051808b73ffffffffffffffffffffffffffffffffffffffff1673ffffffffffffffffffffffffffffffffffffffff1681526020018a73ffffffffffffffffffffffffffffffffffffffff1673ffffffffffffffffffffffffffffffffffffffff1681526020018981526020018881526020018760ff1660ff1681526020018681526020018060200185815260200184815260200180602001838103835287818154600181600116156101000203166002900481526020019150805460018160011615610100020316600290048015610a5c5780601f10610a3157610100808354040283529160200191610a5c565b820191906000526020600020905b815481529060010190602001808311610a3f57829003601f168201915b5050838103825284818154600181600116156101000203166002900481526020019150805460018160011615610100020316600290048015610adf5780601f10610ab457610100808354040283529160200191610adf565b820191906000526020600020905b815481529060010190602001808311610ac257829003601f168201915b50509c5050505050505050505050505060405180910390f35b3415610b0357600080fd5b610b0b612158565b604051808273ffffffffffffffffffffffffffffffffffffffff1673ffffffffffffffffffffffffffffffffffffffff16815260200191505060405180910390f35b3415610b5857600080fd5b610b8d600480803573ffffffffffffffffffffffffffffffffffffffff1690602001909190803590602001909190505061217e565b6040518082815260200191505060405180910390f35b3415610bae57600080fd5b610bc4600480803590602001909190505061257a565b604051808b73ffffffffffffffffffffffffffffffffffffffff1673ffffffffffffffffffffffffffffffffffffffff1681526020018a73ffffffffffffffffffffffffffffffffffffffff1673ffffffffffffffffffffffffffffffffffffffff1681526020018981526020018881526020018760ff1660ff1681526020018681526020018060200185815260200184815260200180602001838103835287818151815260200191508051906020019080838360005b83811015610c96578082015181840152602081019050610c7b565b50505050905090810190601f168015610cc35780820380516001836020036101000a031916815260200191505b50838103825284818151815260200191508051906020019080838360005b83811015610cfc578082015181840152602081019050610ce1565b50505050905090810190601f168015610d295780820380516001836020036101000a031916815260200191505b509c5050505050505050505050505060405180910390f35b3415610d4c57600080fd5b610d546127b0565b6040518082815260200191505060405180910390f35b3415610d7557600080fd5b610d7d6127bd565b6040518082815260200191505060405180910390f35b610e88600480803590602001909190803573ffffffffffffffffffffffffffffffffffffffff1690602001909190803573ffffffffffffffffffffffffffffffffffffffff1690602001909190803590602001909190803590602001908201803590602001908080601f0160208091040260200160405190810160405280939291908181526020018383808284378201915050505050509190803590602001909190803590602001909190803590602001908201803590602001908080601f016020809104026020016040519081016040528093929190818152602001838380828437820191505050505050919050506127c3565b6040518082815260200191505060405180910390f35b3415610ea957600080fd5b610eb1612951565b604051808273ffffffffffffffffffffffffffffffffffffffff1673ffffffffffffffffffffffffffffffffffffffff16815260200191505060405180910390f35b3415610efe57600080fd5b610f06612977565b6040518080602001828103825283818151815260200191508051906020019080838360005b83811015610f46578082015181840152602081019050610f2b565b50505050905090810190601f168015610f735780820380516001836020036101000a031916815260200191505b509250505060405180910390f35b3415610f8c57600080fd5b610f94612a15565b6040518080602001828103825283818151815260200191508051906020019080838360005b83811015610fd4578082015181840152602081019050610fb9565b50505050905090810190601f1680156110015780820380516001836020036101000a031916815260200191505b509250505060405180910390f35b611110600480803590602001909190803573ffffffffffffffffffffffffffffffffffffffff1690602001909190803573ffffffffffffffffffffffffffffffffffffffff1690602001909190803560ff1690602001909190803590602001909190803590602001908201803590602001908080601f0160208091040260200160405190810160405280939291908181526020018383808284378201915050505050509190803590602001909190803590602001909190803590602001908201803590602001908080601f01602080910402602001604051908101604052809392919081815260200183838082843782019150505050505091905050612ab3565b6040518082815260200191505060405180910390f35b611188600480803590602001909190803590602001908201803590602001908080601f01602080910402602001604051908101604052809392919081815260200183838082843782019150505050505091908035906020019091905050612c41565b6040518082815260200191505060405180910390f35b61128f600480803590602001908201803590602001908080601f0160208091040260200160405190810160405280939291908181526020018383808284378201915050505050509190803590602001908201803590602001908080601f0160208091040260200160405190810160405280939291908181526020018383808284378201915050505050509190803590602001909190803590602001909190803590602001909190803590602001908201803590602001908080601f01602080910402602001604051908101604052809392919081815260200183838082843782019150505050505091905050612e9d565b6040518082815260200191505060405180910390f35b34156112b057600080fd5b6112b86130fe565b6040518082815260200191505060405180910390f35b600080600080600080600060018b039550600c80549050861015156112f257600080fd5b600c8681548110151561130157fe5b9060005260206000209060080201945084600001549350838a1415151561132757600080fd5b600d805490509250600d600081548110151561133f57fe5b90600052602060002090600a02019150838a101561154e57611383600260009054906101000a900473ffffffffffffffffffffffffffffffffffffffff168c61217e565b9050838a82011015151561139657600080fd5b60018301600d816113a79190613294565b50600d838154811015156113b757fe5b90600052602060002090600a0201915060038260040160006101000a81548160ff021916908360ff160217905550600260009054906101000a900473ffffffffffffffffffffffffffffffffffffffff168260000160006101000a81548173ffffffffffffffffffffffffffffffffffffffff021916908373ffffffffffffffffffffffffffffffffffffffff160217905550600260009054906101000a900473ffffffffffffffffffffffffffffffffffffffff168260010160006101000a81548173ffffffffffffffffffffffffffffffffffffffff021916908373ffffffffffffffffffffffffffffffffffffffff160217905550878260020181905550428260030181905550858260050181905550888260060190805190602001906114e29291906132c6565b508984038260070181905550600082600801819055506040805190810160405280600181526020017f2d000000000000000000000000000000000000000000000000000000000000008152508260090190805190602001906115459291906132c6565b50829650611702565b60018301600d8161155f9190613294565b50600d8381548110151561156f57fe5b90600052602060002090600a0201915060008260040160006101000a81548160ff021916908360ff160217905550600260009054906101000a900473ffffffffffffffffffffffffffffffffffffffff168260000160006101000a81548173ffffffffffffffffffffffffffffffffffffffff021916908373ffffffffffffffffffffffffffffffffffffffff160217905550600260009054906101000a900473ffffffffffffffffffffffffffffffffffffffff168260010160006101000a81548173ffffffffffffffffffffffffffffffffffffffff021916908373ffffffffffffffffffffffffffffffffffffffff1602179055508782600201819055504282600301819055508582600501819055508882600601908051906020019061169a9291906132c6565b50838a038260070181905550600082600801819055506040805190810160405280600181526020017f2d000000000000000000000000000000000000000000000000000000000000008152508260090190805190602001906116fd9291906132c6565b508296505b505050505050949350505050565b60008060008061171e613346565b611726613346565b600080600080600c80549050915060008b101580156117445750818b105b151561174f57600080fd5b600c8b81548110151561175e57fe5b9060005260206000209060080201905080600001549950806001015498508060020154975080600301549650806004018054600181600116156101000203166002900480601f0160208091040260200160405190810160405280929190818152602001828054600181600116156101000203166002900480156118225780601f106117f757610100808354040283529160200191611822565b820191906000526020600020905b81548152906001019060200180831161180557829003601f168201915b50505050509550806005018054600181600116156101000203166002900480601f0160208091040260200160405190810160405280929190818152602001828054600181600116156101000203166002900480156118c15780601f10611896576101008083540402835291602001916118c1565b820191906000526020600020905b8154815290600101906020018083116118a457829003601f168201915b5050505050945080600601549350806007015492505050919395975091939597565b60008060007fffffffffffffffffffffffffffffffffffffffffffffffffffffffffffffffff9250600091505b600b805490508210156119a957600b8281548110151561192c57fe5b906000526020600020906009020190508373ffffffffffffffffffffffffffffffffffffffff168160000160009054906101000a900473ffffffffffffffffffffffffffffffffffffffff1673ffffffffffffffffffffffffffffffffffffffff16141561199c578192506119a9565b8180600101925050611910565b5050919050565b6000600d80549050905090565b60038054600181600116156101000203166002900480601f016020809104026020016040519081016040528092919081815260200182805460018160011615610100020316600290048015611a535780601f10611a2857610100808354040283529160200191611a53565b820191906000526020600020905b815481529060010190602001808311611a3657829003601f168201915b505050505081565b6000611a65613346565b611a6d613346565b611a75613346565b6000806000806000806000600b80549050915060008c10158015611a985750818c105b1515611aa357600080fd5b600b8c815481101515611ab257fe5b906000526020600020906009020190508060000160009054906101000a900473ffffffffffffffffffffffffffffffffffffffff169a50806001018054600181600116156101000203166002900480601f016020809104026020016040519081016040528092919081815260200182805460018160011615610100020316600290048015611b815780601f10611b5657610100808354040283529160200191611b81565b820191906000526020600020905b815481529060010190602001808311611b6457829003601f168201915b50505050509950806002018054600181600116156101000203166002900480601f016020809104026020016040519081016040528092919081815260200182805460018160011615610100020316600290048015611c205780601f10611bf557610100808354040283529160200191611c20565b820191906000526020600020905b815481529060010190602001808311611c0357829003601f168201915b50505050509850806003018054600181600116156101000203166002900480601f016020809104026020016040519081016040528092919081815260200182805460018160011615610100020316600290048015611cbf5780601f10611c9457610100808354040283529160200191611cbf565b820191906000526020600020905b815481529060010190602001808311611ca257829003601f168201915b5050505050975080600401549650806005015495508060060160009054906101000a900473ffffffffffffffffffffffffffffffffffffffff169450806007015493508060080154925050509193959799909294969850565b60008060007fffffffffffffffffffffffffffffffffffffffffffffffffffffffffffffffff9250600091505b600d80549050821015611d9857600d82815481101515611d6157fe5b90600052602060002090600a02019050611d7e816006018561310b565b15611d8b57819250611d98565b8180600101925050611d45565b5050919050565b60048054600181600116156101000203166002900480601f016020809104026020016040519081016040528092919081815260200182805460018160011615610100020316600290048015611e355780601f10611e0a57610100808354040283529160200191611e35565b820191906000526020600020905b815481529060010190602001808311611e1857829003601f168201915b505050505081565b600080600080600b8054905092503073ffffffffffffffffffffffffffffffffffffffff16632665acbe8a6000604051602001526040518263ffffffff167c0100000000000000000000000000000000000000000000000000000000028152600401808273ffffffffffffffffffffffffffffffffffffffff1673ffffffffffffffffffffffffffffffffffffffff168152602001915050602060405180830381600087803b1515611eee57600080fd5b6102c65a03f11515611eff57600080fd5b5050506040518051905091507fffffffffffffffffffffffffffffffffffffffffffffffffffffffffffffffff82141515611f3957600080fd5b60018301600b81611f4a919061335a565b50600b83815481101515611f5a57fe5b90600052602060002090600902019050888160000160006101000a81548173ffffffffffffffffffffffffffffffffffffffff021916908373ffffffffffffffffffffffffffffffffffffffff16021790555087816001019080519060200190611fc59291906132c6565b5086816002019080519060200190611fde9291906132c6565b5085816003019080519060200190611ff79291906132c6565b5084816004018190555042816005018190555082935050505095945050505050565b6000806120298787878787611e3d565b9150600b8881548110151561203a57fe5b90600052602060002090600902019050868160060160006101000a81548173ffffffffffffffffffffffffffffffffffffffff021916908373ffffffffffffffffffffffffffffffffffffffff160217905550828160070181905550428160080181905550509695505050505050565b600d818154811015156120b957fe5b90600052602060002090600a02016000915090508060000160009054906101000a900473ffffffffffffffffffffffffffffffffffffffff16908060010160009054906101000a900473ffffffffffffffffffffffffffffffffffffffff16908060020154908060030154908060040160009054906101000a900460ff169080600501549080600601908060070154908060080154908060090190508a565b600260009054906101000a900473ffffffffffffffffffffffffffffffffffffffff1681565b60008060008060009350600185039250600c80549050831015156121a157600080fd5b600091505b600d8054905082101561257157600d828154811015156121c257fe5b90600052602060002090600a0201905082816005015414156125645760008160040160009054906101000a900460ff1660ff1614156122bb57600260009054906101000a900473ffffffffffffffffffffffffffffffffffffffff1673ffffffffffffffffffffffffffffffffffffffff168673ffffffffffffffffffffffffffffffffffffffff161480156122a757508573ffffffffffffffffffffffffffffffffffffffff168160010160009054906101000a900473ffffffffffffffffffffffffffffffffffffffff1673ffffffffffffffffffffffffffffffffffffffff16145b156122b6578060070154840193505b612563565b60018160040160009054906101000a900460ff1660ff1614156123a1578573ffffffffffffffffffffffffffffffffffffffff168160000160009054906101000a900473ffffffffffffffffffffffffffffffffffffffff1673ffffffffffffffffffffffffffffffffffffffff16141561233a578060070154840393505b8573ffffffffffffffffffffffffffffffffffffffff168160010160009054906101000a900473ffffffffffffffffffffffffffffffffffffffff1673ffffffffffffffffffffffffffffffffffffffff16141561239c578060070154840193505b612562565b60028160040160009054906101000a900460ff1660ff161415612487578573ffffffffffffffffffffffffffffffffffffffff168160000160009054906101000a900473ffffffffffffffffffffffffffffffffffffffff1673ffffffffffffffffffffffffffffffffffffffff161415612420578060070154840393505b8573ffffffffffffffffffffffffffffffffffffffff168160010160009054906101000a900473ffffffffffffffffffffffffffffffffffffffff1673ffffffffffffffffffffffffffffffffffffffff161415612482578060070154840193505b612561565b60038160040160009054906101000a900460ff1660ff16141561256057600260009054906101000a900473ffffffffffffffffffffffffffffffffffffffff1673ffffffffffffffffffffffffffffffffffffffff168673ffffffffffffffffffffffffffffffffffffffff1614801561255057508573ffffffffffffffffffffffffffffffffffffffff168160010160009054906101000a900473ffffffffffffffffffffffffffffffffffffffff1673ffffffffffffffffffffffffffffffffffffffff16145b1561255f578060070154840193505b5b5b5b5b5b81806001019250506121a6565b50505092915050565b60008060008060008061258b613346565b600080612596613346565b600080600d80549050915060008d101580156125b15750818d105b15156125bc57600080fd5b600d8d8154811015156125cb57fe5b90600052602060002090600a020190508060000160009054906101000a900473ffffffffffffffffffffffffffffffffffffffff169b508060010160009054906101000a900473ffffffffffffffffffffffffffffffffffffffff169a5080600201549950806003015498508060040160009054906101000a900460ff16975060018160050154019650806006018054600181600116156101000203166002900480601f0160208091040260200160405190810160405280929190818152602001828054600181600116156101000203166002900480156126ed5780601f106126c2576101008083540402835291602001916126ed565b820191906000526020600020905b8154815290600101906020018083116126d057829003601f168201915b505050505095508060070154945080600801549350806009018054600181600116156101000203166002900480601f01602080910402602001604051908101604052809291908181526020018280546001816001161561010002031660029004801561279a5780601f1061276f5761010080835404028352916020019161279a565b820191906000526020600020905b81548152906001019060200180831161277d57829003601f168201915b5050505050925050509193959799509193959799565b6000600c80549050905090565b60015481565b6000806000806000600d80549050935060018401600d816127e49190613294565b50600d848154811015156127f457fe5b90600052602060002090600a0201925060028360040160006101000a81548160ff021916908360ff1602179055508b8360000160006101000a81548173ffffffffffffffffffffffffffffffffffffffff021916908373ffffffffffffffffffffffffffffffffffffffff1602179055508a8360010160006101000a81548173ffffffffffffffffffffffffffffffffffffffff021916908373ffffffffffffffffffffffffffffffffffffffff16021790555087836002018190555042836003018190555060018a039150600c80549050821015156128d357600080fd5b818360050181905550888360060190805190602001906128f49291906132c6565b506128ff8c8b61217e565b90508c811015151561291057600080fd5b8c83600701819055508683600801819055508583600901908051906020019061293a9291906132c6565b506001840194505050505098975050505050505050565b600860009054906101000a900473ffffffffffffffffffffffffffffffffffffffff1681565b60058054600181600116156101000203166002900480601f016020809104026020016040519081016040528092919081815260200182805460018160011615610100020316600290048015612a0d5780601f106129e257610100808354040283529160200191612a0d565b820191906000526020600020905b8154815290600101906020018083116129f057829003601f168201915b505050505081565b60008054600181600116156101000203166002900480601f016020809104026020016040519081016040528092919081815260200182805460018160011615610100020316600290048015612aab5780601f10612a8057610100808354040283529160200191612aab565b820191906000526020600020905b815481529060010190602001808311612a8e57829003601f168201915b505050505081565b6000806000806000600d80549050935060018401600d81612ad49190613294565b50600d84815481101515612ae457fe5b90600052602060002090600a020192508a8360040160006101000a81548160ff021916908360ff1602179055508c8360000160006101000a81548173ffffffffffffffffffffffffffffffffffffffff021916908373ffffffffffffffffffffffffffffffffffffffff1602179055508b8360010160006101000a81548173ffffffffffffffffffffffffffffffffffffffff021916908373ffffffffffffffffffffffffffffffffffffffff16021790555087836002018190555042836003018190555060018a039150600c8054905082101515612bc257600080fd5b81836005018190555088836006019080519060200190612be39291906132c6565b50612bee8d8b61217e565b90508d8110151515612bff57600080fd5b8d836007018190555086836008018190555085836009019080519060200190612c299291906132c6565b50600184019450505050509998505050505050505050565b6000806000806000600d80549050935060008810158015612c6157508388105b1515612c6c57600080fd5b600d88815481101515612c7b57fe5b90600052602060002090600a0201925060028360040160009054906101000a900460ff1660ff16141515612cae57600080fd5b612ce08360000160009054906101000a900473ffffffffffffffffffffffffffffffffffffffff16846005015461217e565b915082600701548210151515612cf557600080fd5b60018401600d81612d069190613294565b50600d84815481101515612d1657fe5b90600052602060002090600a0201905060018160040160006101000a81548160ff021916908360ff1602179055508260000160009054906101000a900473ffffffffffffffffffffffffffffffffffffffff168160000160006101000a81548173ffffffffffffffffffffffffffffffffffffffff021916908373ffffffffffffffffffffffffffffffffffffffff1602179055508260010160009054906101000a900473ffffffffffffffffffffffffffffffffffffffff168160010160006101000a81548173ffffffffffffffffffffffffffffffffffffffff021916908373ffffffffffffffffffffffffffffffffffffffff1602179055508581600201819055504281600301819055508260050154816005018190555086816006019080519060200190612e499291906132c6565b50826007015481600701819055508260080154816008018190555082600901816009019080546001816001161561010002031660029004612e8b92919061338c565b50600184019450505050509392505050565b6000806000806000600c80549050935060018401600c81612ebe9190613413565b50600c84815481101515612ece57fe5b906000526020600020906008020192508a836004019080519060200190612ef69291906132c6565b5089836005019080519060200190612f0f9291906132c6565b50888360000181905550878360010181905550868360020181905550428360030181905550600d80549050915060018201600d81612f4d9190613294565b50600d82815481101515612f5d57fe5b90600052602060002090600a0201905060008160040160006101000a81548160ff021916908360ff160217905550600260009054906101000a900473ffffffffffffffffffffffffffffffffffffffff168160000160006101000a81548173ffffffffffffffffffffffffffffffffffffffff021916908373ffffffffffffffffffffffffffffffffffffffff160217905550600260009054906101000a900473ffffffffffffffffffffffffffffffffffffffff168160010160006101000a81548173ffffffffffffffffffffffffffffffffffffffff021916908373ffffffffffffffffffffffffffffffffffffffff160217905550868160020181905550428160030181905550838160050181905550858160060190805190602001906130889291906132c6565b50888160070181905550600081600801819055506040805190810160405280600181526020017f2d000000000000000000000000000000000000000000000000000000000000008152508160090190805190602001906130e99291906132c6565b50600184019450505050509695505050505050565b6000600b80549050905090565b600080613116613445565b6000859250849150815183805460018160011615610100020316600290049050141515613146576000935061328b565b600090505b8280546001816001161561010002031660029004905081101561328657818181518110151561317657fe5b9060200101517f010000000000000000000000000000000000000000000000000000000000000090047f0100000000000000000000000000000000000000000000000000000000000000027effffffffffffffffffffffffffffffffffffffffffffffffffffffffffffff19168382815460018160011615610100020316600290048110151561320257fe5b8154600116156132215790600052602060002090602091828204019190065b9054901a7f0100000000000000000000000000000000000000000000000000000000000000027effffffffffffffffffffffffffffffffffffffffffffffffffffffffffffff1916141515613279576000935061328b565b808060010191505061314b565b600193505b50505092915050565b8154818355818115116132c157600a0281600a0283600052602060002091820191016132c09190613459565b5b505050565b828054600181600116156101000203166002900490600052602060002090601f016020900481019282601f1061330757805160ff1916838001178555613335565b82800160010185558215613335579182015b82811115613334578251825591602001919060010190613319565b5b5090506133429190613522565b5090565b602060405190810160405280600081525090565b815481835581811511613387576009028160090283600052602060002091820191016133869190613547565b5b505050565b828054600181600116156101000203166002900490600052602060002090601f016020900481019282601f106133c55780548555613402565b8280016001018555821561340257600052602060002091601f016020900482015b828111156134015782548255916001019190600101906133e6565b5b50905061340f9190613522565b5090565b8154818355818115116134405760080281600802836000526020600020918201910161343f9190613604565b5b505050565b602060405190810160405280600081525090565b61351f91905b8082111561351b57600080820160006101000a81549073ffffffffffffffffffffffffffffffffffffffff02191690556001820160006101000a81549073ffffffffffffffffffffffffffffffffffffffff0219169055600282016000905560038201600090556004820160006101000a81549060ff021916905560058201600090556006820160006134f29190613673565b600782016000905560088201600090556009820160006135129190613673565b50600a0161345f565b5090565b90565b61354491905b80821115613540576000816000905550600101613528565b5090565b90565b61360191905b808211156135fd57600080820160006101000a81549073ffffffffffffffffffffffffffffffffffffffff021916905560018201600061358d9190613673565b60028201600061359d9190613673565b6003820160006135ad9190613673565b600482016000905560058201600090556006820160006101000a81549073ffffffffffffffffffffffffffffffffffffffff0219169055600782016000905560088201600090555060090161354d565b5090565b90565b61367091905b8082111561366c576000808201600090556001820160009055600282016000905560038201600090556004820160006136439190613673565b6005820160006136539190613673565b600682016000905560078201600090555060080161360a565b5090565b90565b50805460018160011615610100020316600290046000825580601f1061369957506136b8565b601f0160209004906000526020600020908101906136b79190613522565b5b505600a165627a7a723058207057cb13a9a1bd99df79652cd71e2ea81186ab2f40a9c7c3cd538f6635ae42350029",
  "source": "pragma solidity ^0.4.18;\n\ncontract StockLedger {\n\t// implementing the stock ledger (share register, share ledger,..)\n\t// for a SME\n\n\tstring public contract_name;\n\tuint public contract_version;\n\n\t// company\n\taddress public owner;\n\tstring public owner_pubkey;\n\n\tstring public ledger_name;\n\tstring public cocrypted_ledger_description;\n\t\n\tuint creation_date; // unix time\n\tuint creation_block_date; // now in block number\n\t\n\taddress public replaced_by;\n\tuint replacement_date; // unix time\n\tuint replacement_block_date; // now in block number\n\n \t// shareholders list\n\tShareHolder[] shareholders;\n\t\n\tstruct ShareHolder {\n\t    address shldr_address;\n\t    string shldr_pubkey;\n\t    \n\t    string cocrypted_shldr_privkey;\n\t    string cocrypted_shldr_identifier;\n\t    \n\t    uint registration_date; // unix time\n\t    uint block_date; // now in block number\n\t    \n\t\taddress replaced_by;\n\t\tuint replacement_date; // unix time\n\t\tuint replacement_block_date; // now in block number\n\t}\n\n    // issuances\n\tIssuance[] issuances;\n\t\n\tstruct Issuance {\n\t    uint numberofshares;\n\t    uint percentofcapital; // 20 000 represents 20% of capital for new shares\n\t    \n\t    uint issuance_date; // unix time\n\t    uint block_date; // now in block number\n\t    \n\t    string name;\n\t    string cocrypted_description;\n\t    \n\t    uint cancel_date; // unix time\n\t    uint cancel_block_date; // now in block number\n\t}\n\t\n    // stock transactions\n\tStockTransaction[] public stocktransactions;\n\n\tstruct StockTransaction {\n\t\taddress from;\n\t\taddress to;\n\t\t\n\t\tuint transactiondate; // unix time\n\t\tuint block_date; \n\t\t\n\t\tuint8 nature; // 0 creation, 1 registered transfer, 2 signed endorsement, 3 withdrawal/repurchase\n\t\t\n\t\tuint issuanceindex; // issuance number is 1 based\n\t\tstring orderid; // unique, provided by caller\n\n\t\tuint numberofshares;\n\t\t\n\t\tuint consideration;\n\t\tstring currency;\n\t}\n\n\tfunction StockLedger(address _owner, string _owner_pubkey, string _cocrypted_owner_identifier, string _ledger_name, string _cocrypted_ledger_description) public {\n\t\tcontract_name = \"stockledger\";\n\t\tcontract_version = 20180101;\n\t\t\n\t\treplaced_by = address(0);\n\t\t\n\t\towner = _owner;\n\t\towner_pubkey = _owner_pubkey;\n\t\t\n\t\tledger_name = _ledger_name;\n\t\tcocrypted_ledger_description = _cocrypted_ledger_description;\n\t\t\n\t\tshareholders.length = 1; // company as initial holder of shares\n\t\t\n        ShareHolder storage shldr = shareholders[0] ;\n        \n        shldr.shldr_address = _owner;\n        shldr.shldr_pubkey = _owner_pubkey;\n        shldr.cocrypted_shldr_privkey = \"0x\"; // we do not store owner's private key\n        shldr.cocrypted_shldr_identifier = _cocrypted_owner_identifier;\n        \n\t\tissuances.length = 0;\n\t\t\n        stocktransactions.length = 0;\n\t}\n\t\n\tfunction registerShareHolder(address _shldr_address, string _shldr_pubkey, string _cocrypted_shldr_privkey, string _cocrypted_shldr_identifier, uint _registration_date) public payable returns (uint _shldrindex) {\n\t    uint __current_number_of_shareholders = shareholders.length;\n\t    \n\t    int _shldr_number = this.findShareHolderNumber(_shldr_address);\n\t    \n\t    require(_shldr_number == -1); // not already in the list\n\t    \n\t    shareholders.length = __current_number_of_shareholders + 1; // grow the list\n\t    \n        ShareHolder storage __shldr = shareholders[__current_number_of_shareholders];\n        \n        __shldr.shldr_address = _shldr_address;\n        __shldr.shldr_pubkey = _shldr_pubkey;\n        \n        __shldr.cocrypted_shldr_privkey = _cocrypted_shldr_privkey;\n        __shldr.cocrypted_shldr_identifier = _cocrypted_shldr_identifier;\n        \n        __shldr.registration_date = _registration_date;\n        __shldr.block_date = now;\n        \n        _shldrindex = __current_number_of_shareholders;\n\t}\n\t\n\tfunction getShareHolderCount() public view returns (uint _count) {\n\t    _count = shareholders.length;\n\t}\n\t\n\tfunction getShareHolderAt(uint _index) public view returns (address _shldr_address, string _shldr_pubkey, string _cocrypted_shldr_privkey, string _cocrypted_shldr_identifier, uint _registration_date, uint _block_date, address _replaced_by, uint _replacement_date, uint _replacement_block_date) {\n\t    uint __current_number_of_shareholders = shareholders.length;\n\t    \n\t    require((_index >= 0) && (_index < __current_number_of_shareholders));\n\t    \n\t    ShareHolder storage __shldr = shareholders[_index];\n\t    \n\t    _shldr_address = __shldr.shldr_address;\n\t    _shldr_pubkey = __shldr.shldr_pubkey;\n\t    \n\t    _cocrypted_shldr_privkey = __shldr.cocrypted_shldr_privkey;\n\t    _cocrypted_shldr_identifier = __shldr.cocrypted_shldr_identifier;\n\t    \n\t    _registration_date = __shldr.registration_date; // unix time\n\t    _block_date = __shldr.block_date; // now in block number\n\t    \n\t\t_replaced_by = __shldr.replaced_by;\n\t\t_replacement_date = __shldr.replacement_date; // unix time\n\t\t_replacement_block_date = __shldr.replacement_block_date; // now in block number\n\t}\n\t\n\tfunction registerShareHolderReplacementAt(uint _index, address _shldr_address, string _shldr_pubkey, string _shldr_cocrypted_shldr_key, string _shldr_cocrypted_shldr_identifier, uint _shldr_registration_date) public payable returns (uint _shldrindex) {\n\t    // replace a shareholder entry by a linked entry (e.g. in case shareholder has lost their key or key has been stolen)\n\t    _shldrindex = registerShareHolder(_shldr_address, _shldr_pubkey, _shldr_cocrypted_shldr_key, _shldr_cocrypted_shldr_identifier, _shldr_registration_date);\n\t    \n\t    ShareHolder storage __shldr = shareholders[_index];\n\t    \n\t    __shldr.replaced_by = _shldr_address;\n\t    __shldr.replacement_date = _shldr_registration_date;\n\t    __shldr.replacement_block_date = now;\n\t    \n\t}\n\t\n\tfunction findShareHolderNumber(address _shldr_address) public view returns (int _number) {\n\t    _number = -1;\n\t    \n\t    for (uint i = 0; i < shareholders.length; i++) {\n\t        ShareHolder storage __shldr = shareholders[i];\n\t        \n\t        if (__shldr.shldr_address == _shldr_address) {\n\t             _number = int(i);\n\t             \n\t             break;\n\t        }\n\t    }\n\t}\n\n\tfunction registerIssuance(string _name, string _cocrypted_description, uint _numberofshares, uint _percentofcapital, uint _issuance_unixtime, string _orderid) payable public returns (uint _issuancenumber) {\n\t    //require(msg.sender == owner);\n\n\t    uint __numberofissuances = issuances.length;\n\t    \n   \t    // add a new issuance\n    \tissuances.length = __numberofissuances + 1;\n    \tIssuance storage __issu = issuances[__numberofissuances];\n\t    \n\t\t\n\t\t__issu.name = _name;\n\t\t__issu.cocrypted_description = _cocrypted_description;\n\t\t\n\t\t__issu.numberofshares = _numberofshares;\n\t\t__issu.percentofcapital = _percentofcapital;\n\t\t\n\t\t__issu.issuance_date = _issuance_unixtime;\n\t\t__issu.block_date = now;\n\n        // initial creation of shares\n        uint __numberoftransactions = stocktransactions.length;\n        stocktransactions.length = __numberoftransactions + 1;\n        \n        StockTransaction storage __txn = stocktransactions[__numberoftransactions];\n        \n        __txn.nature = 0;\n        \n        __txn.from = owner;\n        __txn.to = owner;\n        \n        __txn.transactiondate = _issuance_unixtime;\n        __txn.block_date = now;\n        \n        __txn.issuanceindex = __numberofissuances;\n        __txn.orderid = _orderid;\n        \n        __txn.numberofshares = _numberofshares;\n        \n        __txn.consideration = 0;\n        __txn.currency = '-';\n\n        _issuancenumber = __numberofissuances + 1;\n\t}\n\t\n\tfunction registerIssuanceResize(uint _issuancenumber, uint _newnumberofshares, string _orderid, uint _transactiondate) payable public returns (uint _txnumber) {\n\t    //require(msg.sender == owner);\n\t    \n        uint __issuanceindex = _issuancenumber -1; // 1 based\n \n        require(__issuanceindex < issuances.length); \t\n        \n        Issuance storage __issu = issuances[__issuanceindex];\n        \n        uint __current_numberofshares = __issu.numberofshares;\n        \n  \t    require( _newnumberofshares != __current_numberofshares);\n       \n        uint __numberoftransactions = stocktransactions.length;\n        StockTransaction storage __txn = stocktransactions[0];\n        \n       if (_newnumberofshares < __current_numberofshares) {\n \t        // company must still detain sufficient shares\n \t        // to allow the resize\n \t        uint __owner_position = getShareHolderPosition(owner, _issuancenumber);\n \t        \n \t        require(__owner_position + _newnumberofshares >= __current_numberofshares);\n \t        \n           // destruction of shares\n            stocktransactions.length = __numberoftransactions + 1;\n            \n            __txn = stocktransactions[__numberoftransactions];\n            \n            __txn.nature = 3;\n            \n            __txn.from = owner;\n            __txn.to = owner;\n            \n            __txn.transactiondate = _transactiondate;\n            __txn.block_date = now;\n            \n            __txn.issuanceindex = __issuanceindex; \n            __txn.orderid = _orderid;\n            \n            __txn.numberofshares = __current_numberofshares - _newnumberofshares;\n            \n            __txn.consideration = 0;\n            __txn.currency = '-';\n            \n            _txnumber = __numberoftransactions;\n           \n        }\n        else {\n            // additional creation of shares\n             stocktransactions.length = __numberoftransactions + 1;\n            \n            __txn = stocktransactions[__numberoftransactions];\n            \n            __txn.nature = 0;\n            \n            __txn.from = owner;\n            __txn.to = owner;\n            \n            __txn.transactiondate = _transactiondate;\n            __txn.block_date = now;\n            \n            __txn.issuanceindex = __issuanceindex; \n            __txn.orderid = _orderid;\n            \n            __txn.numberofshares = _newnumberofshares - __current_numberofshares;\n            \n            __txn.consideration = 0;\n            __txn.currency = '-';\n            \n            _txnumber = __numberoftransactions;\n      }\n\t    \n\t}\n\t\n\tfunction getIssuanceAt(uint _index) public view returns (uint _numberofshares, uint _percentofcapital, uint _issuance_date,  uint _block_date, string _name, string _cocrypted_description, uint _cancel_date, uint _cancel_block_date) {\n\t    uint __current_number_of_issuances = issuances.length;\n\t    \n\t    require((_index >= 0) && (_index < __current_number_of_issuances));\n\t    \n\t    Issuance storage __issu = issuances[_index];\n\t    \n \t    _numberofshares = __issu.numberofshares;\n\t    _percentofcapital = __issu.percentofcapital; // 20000 represents 20% of capital for new shares\n\t    \n\t    _issuance_date = __issu.issuance_date; // unix time\n\t    _block_date = __issu.block_date; // now in block number\n\t    \n\t    _name = __issu.name;\n\t    _cocrypted_description = __issu.cocrypted_description;\n\t    \n\t    _cancel_date = __issu.cancel_date; // unix time\n\t    _cancel_block_date = __issu.cancel_block_date; // now in block number\n\t}\n\t\n\tfunction getIssuanceCount() public view returns (uint _count) {\n\t    _count = issuances.length;\n\t}\n\t\n\tfunction getShareHolderPosition(address _shldr_address, uint _issuancenumber) public view returns (uint _position) {\n\t    _position = 0;\n\t    \n       uint __issuanceindex = _issuancenumber -1; // 1 based\n       \n       require(__issuanceindex < issuances.length); \n\n\t    for (uint i = 0; i < stocktransactions.length; i++) {\n\t        StockTransaction storage __txn = stocktransactions[i];\n\t        \n\t        if (__txn.issuanceindex == __issuanceindex) {\n\t            \n\t            if (__txn.nature == 0) {\n\t                if ((_shldr_address == owner) && (__txn.to == _shldr_address)) {\n\t                   _position = _position + __txn.numberofshares; \n\t                }\n\t            }\n\t            else if (__txn.nature == 1) {\n   \t                if (__txn.from == _shldr_address) {\n    \t                _position = _position - __txn.numberofshares;\n    \t            }\n    \t             \n    \t            if (__txn.to == _shldr_address) {\n    \t                _position = _position + __txn.numberofshares;\n    \t            }\n\t                \n\t            }\n\t            else if (__txn.nature == 2) {\n  \t                // shares are committed in a recorded transaction\n  \t                if (__txn.from == _shldr_address) {\n    \t                _position = _position - __txn.numberofshares;\n    \t            }\n   \t             \n    \t            if (__txn.to == _shldr_address) {\n    \t                _position = _position + __txn.numberofshares;\n    \t            }\n\t            }\n\t            else if (__txn.nature == 3) {\n   \t                if ((_shldr_address == owner) && (__txn.to == _shldr_address)) {\n    \t                _position = _position + __txn.numberofshares;\n    \t            }\n\t                \n\t            }\n\t            \n\t        }\n\t    }\n\t    \n\t}\n\t\n\tfunction registerTransaction(uint _numberofshares, address _from, address _to, uint8 _nature, uint _issuancenumber, string _orderid, uint _transaction_unixtime, uint _consideration, string _currency) payable public returns (uint _txnumber) {\n\t    //require(msg.sender == owner);\n\t    \n        uint __numberoftransactions = stocktransactions.length;\n        stocktransactions.length = __numberoftransactions + 1;\n\n        StockTransaction storage __txn = stocktransactions[__numberoftransactions];\n        \n        __txn.nature = _nature;\n        \n        __txn.from = _from;\n        __txn.to = _to;\n        \n        __txn.transactiondate = _transaction_unixtime;\n        __txn.block_date = now;\n        \n        uint __issuanceindex = _issuancenumber -1; // 1 based\n        \n        require(__issuanceindex < issuances.length); \n        __txn.issuanceindex = __issuanceindex; \n        __txn.orderid = _orderid;\n        \n        // check sender has enough share of this issuance\n        uint __shldr_position = getShareHolderPosition(_from, _issuancenumber);\n        require (__shldr_position >= _numberofshares);\n        \n        __txn.numberofshares = _numberofshares;\n        \n        __txn.consideration = _consideration;\n        __txn.currency = _currency;\n\n\t    _txnumber = __numberoftransactions + 1;\n\t}\n\t\n\tfunction recordTransfer(uint _numberofshares, address _from, address _to, uint _issuancenumber, string _orderid, uint _transaction_unixtime, uint _consideration, string _currency) payable public returns (uint _txnumber) {\n\t    //require(msg.sender == _from); // done by the owner of the shares\n\t    \n        uint __numberoftransactions = stocktransactions.length;\n        stocktransactions.length = __numberoftransactions + 1;\n\n        StockTransaction storage __txn = stocktransactions[__numberoftransactions];\n        \n        __txn.nature = 2; // endorsement\n        \n        __txn.from = _from;\n        __txn.to = _to;\n        \n        __txn.transactiondate = _transaction_unixtime;\n        __txn.block_date = now;\n        \n         uint __issuanceindex = _issuancenumber -1; // 1 based\n        \n        \n        require(__issuanceindex < issuances.length); \n        __txn.issuanceindex = __issuanceindex; \n        __txn.orderid = _orderid;\n        \n        // check sender has enough share of this issuance\n        uint __shldr_position = getShareHolderPosition(_from, _issuancenumber);\n        require (__shldr_position >= _numberofshares);\n        \n        __txn.numberofshares = _numberofshares;\n        \n        __txn.consideration = _consideration;\n        __txn.currency = _currency;\n\n\t    _txnumber = __numberoftransactions + 1;\n\t}\n\t\n\tfunction registerTransfer(uint _tranfertxnnumber, string _orderid, uint _transaction_unixtime) payable public returns (uint _txnumber) {\n\t    //require(msg.sender == owner); // done by the owner of the ledger\n\t    \n        uint __numberoftransactions = stocktransactions.length;\n\t   \n\t    require((_tranfertxnnumber >= 0) && (_tranfertxnnumber < __numberoftransactions));\n\t    \n\t    StockTransaction storage __recordedtx = stocktransactions[_tranfertxnnumber];\n\t    \n\t    require(__recordedtx.nature == 2);\n\t    \n         // check sender has still enough share of this issuance\n        uint __shldr_position = getShareHolderPosition(__recordedtx.from, __recordedtx.issuanceindex);\n        require (__shldr_position >= __recordedtx.numberofshares);\n        \n        // grow array\n        stocktransactions.length = __numberoftransactions + 1;\n\n        StockTransaction storage __txn = stocktransactions[__numberoftransactions];\n        \n        __txn.nature = 1;\n        \n        __txn.from = __recordedtx.from;\n        __txn.to = __recordedtx.to;\n        \n        __txn.transactiondate = _transaction_unixtime;\n        __txn.block_date = now;\n        \n        \n        __txn.issuanceindex = __recordedtx.issuanceindex; \n        __txn.orderid = _orderid;\n        \n        __txn.numberofshares = __recordedtx.numberofshares;\n        \n        __txn.consideration = __recordedtx.consideration;\n        __txn.currency = __recordedtx.currency;\n\n\t    _txnumber = __numberoftransactions + 1;\n\t}\n \n\t\n\tfunction findTransaction(string _orderid) public view returns (int _txindex) {\n\t    _txindex = -1;\n\t    \n\t    for (uint i = 0; i < stocktransactions.length; i++) {\n\t        StockTransaction storage __txn = stocktransactions[i];\n\t        \n\t        if (stringsEqual(__txn.orderid, _orderid)) {\n\t             _txindex = int(i);\n\t             \n\t             break;\n\t        }\n\t    }\n\t    \n\t}\n\t\n\tfunction getTransactionAt(uint _index) public view returns (address _from, address _to,\tuint _transactiondate, uint _block_date, uint8 _nature, uint _issuancenumber, string _orderid, uint _numberofshares, uint _consideration, string _currency) {\n\t    uint __current_number_of_transactions = stocktransactions.length;\n\t    \n\t    require((_index >= 0) && (_index <  __current_number_of_transactions));\n\t    \n\t    StockTransaction storage __txn = stocktransactions[_index];\n\t    \n\t\t_from = __txn.from;\n\t\t_to = __txn.to;\n\t\t\n\t\t_transactiondate = __txn.transactiondate; // unix time\n\t\t_block_date = __txn.block_date; \n\t\t\n\t\t_nature = __txn.nature; // 0 creation, 1 transfer, 2 pledge, 3 redeem\n\t\t\n\t\t_issuancenumber = __txn.issuanceindex + 1; // number is 1 based\n\t\t_orderid = __txn.orderid; // unique, provided by caller\n\n\t\t_numberofshares = __txn.numberofshares;\n\t\t\n\t\t_consideration = __txn.consideration;\n\t\t_currency = __txn.currency;\n\t}\n\t\n\tfunction getTransactionCount() public view returns (uint _count) {\n\t    _count = stocktransactions.length;\n\t}\n\t\n\n    // utility\t\n\tfunction stringsEqual(string storage _a, string memory _b) internal view returns (bool) {\n\t\tbytes storage a = bytes(_a);\n\t\tbytes memory b = bytes(_b);\n\t\tif (a.length != b.length)\n\t\t\treturn false;\n\t\t// @todo unroll this loop\n\t\tfor (uint i = 0; i < a.length; i ++)\n\t\t\tif (a[i] != b[i])\n\t\t\t\treturn false;\n\t\treturn true;\n\t}\n\n\n}",
  "sourcePath": "/home/frederic/home/p2pmoney-dev/var/lib/git/repos/solidity/ethereum_securities/contracts/StockLedger.sol",
  "compiler": {
    "name": "solc",
    "version": "0.4.18+commit.9cf6e910.Emscripten.clang"
  },
  "schemaVersion": "1.0.1",
  "updatedAt": "2018-01-27T10:39:36.225Z"
}