{
  "contractName": "StockLedger",
  "abi": [
    {
      "constant": true,
      "inputs": [
        {
          "name": "_index",
          "type": "uint256"
        }
      ],
      "name": "getIssuanceAt",
      "outputs": [
        {
          "name": "_numberofshares",
          "type": "uint256"
        },
        {
          "name": "_percentofcapital",
          "type": "uint256"
        },
        {
          "name": "_issuance_date",
          "type": "uint256"
        },
        {
          "name": "_block_date",
          "type": "uint256"
        },
        {
          "name": "_name",
          "type": "string"
        },
        {
          "name": "_cocrypted_description",
          "type": "string"
        },
        {
          "name": "_cancel_date",
          "type": "uint256"
        },
        {
          "name": "_cancel_block_date",
          "type": "uint256"
        },
        {
          "name": "_orderid",
          "type": "string"
        },
        {
          "name": "_signature",
          "type": "string"
        }
      ],
      "payable": false,
      "stateMutability": "view",
      "type": "function"
    },
    {
      "constant": false,
      "inputs": [
        {
          "name": "_shldr_address",
          "type": "address"
        },
        {
          "name": "_shldr_pubkey",
          "type": "string"
        },
        {
          "name": "_cocrypted_shldr_privkey",
          "type": "string"
        },
        {
          "name": "_cocrypted_shldr_identifier",
          "type": "string"
        },
        {
          "name": "_registration_date",
          "type": "uint256"
        },
        {
          "name": "_creator",
          "type": "address"
        },
        {
          "name": "_crtcrypted_shldr_description_string",
          "type": "string"
        },
        {
          "name": "_crtcrypted_shldr_identifier",
          "type": "string"
        },
        {
          "name": "_orderid",
          "type": "string"
        },
        {
          "name": "_signature",
          "type": "string"
        },
        {
          "name": "_shldrcrypted_shldr_string",
          "type": "string"
        },
        {
          "name": "_shldrcrypted_shldr_identifier",
          "type": "string"
        }
      ],
      "name": "registerShareHolder",
      "outputs": [
        {
          "name": "_shldrindex",
          "type": "uint256"
        }
      ],
      "payable": true,
      "stateMutability": "payable",
      "type": "function"
    },
    {
      "constant": true,
      "inputs": [
        {
          "name": "_shldr_address",
          "type": "address"
        }
      ],
      "name": "findShareHolderNumber",
      "outputs": [
        {
          "name": "_number",
          "type": "int256"
        }
      ],
      "payable": false,
      "stateMutability": "view",
      "type": "function"
    },
    {
      "constant": false,
      "inputs": [],
      "name": "reclaimContractBalance",
      "outputs": [
        {
          "name": "success",
          "type": "bool"
        }
      ],
      "payable": true,
      "stateMutability": "payable",
      "type": "function"
    },
    {
      "constant": true,
      "inputs": [
        {
          "name": "_acct_address",
          "type": "address"
        }
      ],
      "name": "findAccountNumber",
      "outputs": [
        {
          "name": "_number",
          "type": "int256"
        }
      ],
      "payable": false,
      "stateMutability": "view",
      "type": "function"
    },
    {
      "constant": false,
      "inputs": [
        {
          "name": "_numberofshares",
          "type": "uint256"
        },
        {
          "name": "_from",
          "type": "address"
        },
        {
          "name": "_to",
          "type": "address"
        },
        {
          "name": "_nature",
          "type": "uint8"
        },
        {
          "name": "_issuancenumber",
          "type": "uint256"
        },
        {
          "name": "_orderid",
          "type": "string"
        },
        {
          "name": "_transaction_unixtime",
          "type": "uint256"
        },
        {
          "name": "_consideration",
          "type": "uint256"
        },
        {
          "name": "_currency",
          "type": "string"
        },
        {
          "name": "_creator",
          "type": "address"
        },
        {
          "name": "_signature",
          "type": "string"
        }
      ],
      "name": "registerTransaction",
      "outputs": [
        {
          "name": "_txnumber",
          "type": "uint256"
        }
      ],
      "payable": true,
      "stateMutability": "payable",
      "type": "function"
    },
    {
      "constant": true,
      "inputs": [],
      "name": "getTransactionCount",
      "outputs": [
        {
          "name": "_count",
          "type": "uint256"
        }
      ],
      "payable": false,
      "stateMutability": "view",
      "type": "function"
    },
    {
      "constant": true,
      "inputs": [],
      "name": "owner_pubkey",
      "outputs": [
        {
          "name": "",
          "type": "string"
        }
      ],
      "payable": false,
      "stateMutability": "view",
      "type": "function"
    },
    {
      "constant": true,
      "inputs": [
        {
          "name": "_index",
          "type": "uint256"
        }
      ],
      "name": "getShareHolderAt",
      "outputs": [
        {
          "name": "_shldr_address",
          "type": "address"
        },
        {
          "name": "_shldr_pubkey",
          "type": "string"
        },
        {
          "name": "_cocrypted_shldr_privkey",
          "type": "string"
        },
        {
          "name": "_cocrypted_shldr_identifier",
          "type": "string"
        },
        {
          "name": "_registration_date",
          "type": "uint256"
        },
        {
          "name": "_block_date",
          "type": "uint256"
        },
        {
          "name": "_replacing",
          "type": "address"
        }
      ],
      "payable": false,
      "stateMutability": "view",
      "type": "function"
    },
    {
      "constant": true,
      "inputs": [],
      "name": "replacement_block_date",
      "outputs": [
        {
          "name": "",
          "type": "uint256"
        }
      ],
      "payable": false,
      "stateMutability": "view",
      "type": "function"
    },
    {
      "constant": true,
      "inputs": [
        {
          "name": "_orderid",
          "type": "string"
        }
      ],
      "name": "findTransaction",
      "outputs": [
        {
          "name": "_txindex",
          "type": "int256"
        }
      ],
      "payable": false,
      "stateMutability": "view",
      "type": "function"
    },
    {
      "constant": true,
      "inputs": [],
      "name": "creation_date",
      "outputs": [
        {
          "name": "",
          "type": "uint256"
        }
      ],
      "payable": false,
      "stateMutability": "view",
      "type": "function"
    },
    {
      "constant": true,
      "inputs": [],
      "name": "ledger_name",
      "outputs": [
        {
          "name": "",
          "type": "string"
        }
      ],
      "payable": false,
      "stateMutability": "view",
      "type": "function"
    },
    {
      "constant": true,
      "inputs": [
        {
          "name": "_index",
          "type": "uint256"
        }
      ],
      "name": "getIssuanceExtraAt",
      "outputs": [
        {
          "name": "_issuance_type",
          "type": "string"
        },
        {
          "name": "_code",
          "type": "string"
        }
      ],
      "payable": false,
      "stateMutability": "view",
      "type": "function"
    },
    {
      "constant": true,
      "inputs": [
        {
          "name": "_index",
          "type": "uint256"
        }
      ],
      "name": "getShareHolderExtraAt",
      "outputs": [
        {
          "name": "_creator",
          "type": "address"
        },
        {
          "name": "_crtcrypted_shldr_description_string",
          "type": "string"
        },
        {
          "name": "_crtcrypted_shldr_identifier",
          "type": "string"
        },
        {
          "name": "_orderid",
          "type": "string"
        },
        {
          "name": "_signature",
          "type": "string"
        },
        {
          "name": "_shldrcrypted_shldr_description_string",
          "type": "string"
        },
        {
          "name": "_shldrcrypted_shldr_identifier",
          "type": "string"
        }
      ],
      "payable": false,
      "stateMutability": "view",
      "type": "function"
    },
    {
      "constant": true,
      "inputs": [
        {
          "name": "",
          "type": "uint256"
        }
      ],
      "name": "stocktransactions",
      "outputs": [
        {
          "name": "from",
          "type": "address"
        },
        {
          "name": "to",
          "type": "address"
        },
        {
          "name": "transactiondate",
          "type": "uint256"
        },
        {
          "name": "block_date",
          "type": "uint256"
        },
        {
          "name": "nature",
          "type": "uint8"
        },
        {
          "name": "issuanceindex",
          "type": "uint256"
        },
        {
          "name": "numberofshares",
          "type": "uint256"
        },
        {
          "name": "consideration",
          "type": "uint256"
        },
        {
          "name": "currency",
          "type": "string"
        },
        {
          "name": "creator",
          "type": "address"
        },
        {
          "name": "orderid",
          "type": "string"
        },
        {
          "name": "signature",
          "type": "string"
        }
      ],
      "payable": false,
      "stateMutability": "view",
      "type": "function"
    },
    {
      "constant": true,
      "inputs": [],
      "name": "owner",
      "outputs": [
        {
          "name": "",
          "type": "address"
        }
      ],
      "payable": false,
      "stateMutability": "view",
      "type": "function"
    },
    {
      "constant": true,
      "inputs": [
        {
          "name": "_shldr_address",
          "type": "address"
        },
        {
          "name": "_issuancenumber",
          "type": "uint256"
        }
      ],
      "name": "getShareHolderPosition",
      "outputs": [
        {
          "name": "_position",
          "type": "uint256"
        }
      ],
      "payable": false,
      "stateMutability": "view",
      "type": "function"
    },
    {
      "constant": true,
      "inputs": [
        {
          "name": "_index",
          "type": "uint256"
        }
      ],
      "name": "getTransactionAt",
      "outputs": [
        {
          "name": "_from",
          "type": "address"
        },
        {
          "name": "_to",
          "type": "address"
        },
        {
          "name": "_transactiondate",
          "type": "uint256"
        },
        {
          "name": "_block_date",
          "type": "uint256"
        },
        {
          "name": "_nature",
          "type": "uint8"
        },
        {
          "name": "_issuancenumber",
          "type": "uint256"
        },
        {
          "name": "_orderid",
          "type": "string"
        },
        {
          "name": "_numberofshares",
          "type": "uint256"
        },
        {
          "name": "_consideration",
          "type": "uint256"
        },
        {
          "name": "_currency",
          "type": "string"
        },
        {
          "name": "_creator",
          "type": "address"
        },
        {
          "name": "_signature",
          "type": "string"
        }
      ],
      "payable": false,
      "stateMutability": "view",
      "type": "function"
    },
    {
      "constant": true,
      "inputs": [],
      "name": "next_orderid",
      "outputs": [
        {
          "name": "",
          "type": "string"
        }
      ],
      "payable": false,
      "stateMutability": "view",
      "type": "function"
    },
    {
      "constant": true,
      "inputs": [],
      "name": "getAccountCount",
      "outputs": [
        {
          "name": "_count",
          "type": "uint256"
        }
      ],
      "payable": false,
      "stateMutability": "view",
      "type": "function"
    },
    {
      "constant": false,
      "inputs": [
        {
          "name": "_name",
          "type": "string"
        },
        {
          "name": "_cocrypted_description",
          "type": "string"
        },
        {
          "name": "_numberofshares",
          "type": "uint256"
        },
        {
          "name": "_percentofcapital",
          "type": "uint256"
        },
        {
          "name": "_issuance_unixtime",
          "type": "uint256"
        },
        {
          "name": "_orderid",
          "type": "string"
        },
        {
          "name": "_signature",
          "type": "string"
        },
        {
          "name": "_issuance_type",
          "type": "string"
        },
        {
          "name": "_code",
          "type": "string"
        }
      ],
      "name": "registerIssuance",
      "outputs": [
        {
          "name": "_issuancenumber",
          "type": "uint256"
        }
      ],
      "payable": true,
      "stateMutability": "payable",
      "type": "function"
    },
    {
      "constant": true,
      "inputs": [],
      "name": "getIssuanceCount",
      "outputs": [
        {
          "name": "_count",
          "type": "uint256"
        }
      ],
      "payable": false,
      "stateMutability": "view",
      "type": "function"
    },
    {
      "constant": true,
      "inputs": [],
      "name": "contract_version",
      "outputs": [
        {
          "name": "",
          "type": "uint256"
        }
      ],
      "payable": false,
      "stateMutability": "view",
      "type": "function"
    },
    {
      "constant": false,
      "inputs": [
        {
          "name": "_issuancenumber",
          "type": "uint256"
        },
        {
          "name": "_newnumberofshares",
          "type": "uint256"
        },
        {
          "name": "_orderid",
          "type": "string"
        },
        {
          "name": "_transactiondate",
          "type": "uint256"
        },
        {
          "name": "_signature",
          "type": "string"
        }
      ],
      "name": "registerIssuanceResize",
      "outputs": [
        {
          "name": "_txnumber",
          "type": "uint256"
        }
      ],
      "payable": true,
      "stateMutability": "payable",
      "type": "function"
    },
    {
      "constant": true,
      "inputs": [],
      "name": "replaced_by",
      "outputs": [
        {
          "name": "",
          "type": "address"
        }
      ],
      "payable": false,
      "stateMutability": "view",
      "type": "function"
    },
    {
      "constant": true,
      "inputs": [],
      "name": "replacement_date",
      "outputs": [
        {
          "name": "",
          "type": "uint256"
        }
      ],
      "payable": false,
      "stateMutability": "view",
      "type": "function"
    },
    {
      "constant": false,
      "inputs": [
        {
          "name": "_acct_address",
          "type": "address"
        },
        {
          "name": "_rsa_pubkey",
          "type": "string"
        },
        {
          "name": "_ece_pubkey",
          "type": "string"
        },
        {
          "name": "_cocrypted_acct_privkey",
          "type": "string"
        }
      ],
      "name": "registerAccount",
      "outputs": [
        {
          "name": "_acctindex",
          "type": "uint256"
        }
      ],
      "payable": true,
      "stateMutability": "payable",
      "type": "function"
    },
    {
      "constant": true,
      "inputs": [],
      "name": "cocrypted_ledger_description",
      "outputs": [
        {
          "name": "",
          "type": "string"
        }
      ],
      "payable": false,
      "stateMutability": "view",
      "type": "function"
    },
    {
      "constant": true,
      "inputs": [],
      "name": "contract_name",
      "outputs": [
        {
          "name": "",
          "type": "string"
        }
      ],
      "payable": false,
      "stateMutability": "view",
      "type": "function"
    },
    {
      "constant": true,
      "inputs": [],
      "name": "creation_block_date",
      "outputs": [
        {
          "name": "",
          "type": "uint256"
        }
      ],
      "payable": false,
      "stateMutability": "view",
      "type": "function"
    },
    {
      "constant": true,
      "inputs": [
        {
          "name": "_index",
          "type": "uint256"
        }
      ],
      "name": "getAccountAt",
      "outputs": [
        {
          "name": "_acct_address",
          "type": "address"
        },
        {
          "name": "_rsa_pubkey",
          "type": "string"
        },
        {
          "name": "_ece_pubkey",
          "type": "string"
        },
        {
          "name": "_cocrypted_acct_privkey",
          "type": "string"
        }
      ],
      "payable": false,
      "stateMutability": "view",
      "type": "function"
    },
    {
      "constant": true,
      "inputs": [],
      "name": "getShareHolderCount",
      "outputs": [
        {
          "name": "_count",
          "type": "uint256"
        }
      ],
      "payable": false,
      "stateMutability": "view",
      "type": "function"
    },
    {
      "inputs": [
        {
          "name": "_owner",
          "type": "address"
        },
        {
          "name": "_owner_pubkey",
          "type": "string"
        },
        {
          "name": "_crtcrypted_owner_identifier",
          "type": "string"
        },
        {
          "name": "_ledger_name",
          "type": "string"
        },
        {
          "name": "_cocrypted_ledger_description",
          "type": "string"
        }
      ],
      "payable": false,
      "stateMutability": "nonpayable",
      "type": "constructor"
    }
  ],
  "bytecode": "0x606060405234156200001057600080fd5b60405162006708380380620067088339810160405280805190602001909190805182019190602001805182019190602001805182019190602001805182019190505060006040805190810160405280600b81526020017f73746f636b6c656467657200000000000000000000000000000000000000000081525060009080519060200190620000a192919062000c39565b50630133ec856001819055506000600860006101000a81548173ffffffffffffffffffffffffffffffffffffffff021916908373ffffffffffffffffffffffffffffffffffffffff16021790555085600260006101000a81548173ffffffffffffffffffffffffffffffffffffffff021916908373ffffffffffffffffffffffffffffffffffffffff16021790555084600390805190602001906200014892919062000c39565b5082600490805190602001906200016192919062000c39565b5081600590805190602001906200017a92919062000c39565b506001600d816200018c919062000cc0565b50600d60008154811015156200019e57fe5b90600052602060002090600e02019050858160000160006101000a81548173ffffffffffffffffffffffffffffffffffffffff021916908373ffffffffffffffffffffffffffffffffffffffff160217905550848160010190805190602001906200020b92919062000c39565b506040805190810160405280600281526020017f30780000000000000000000000000000000000000000000000000000000000008152508160020190805190602001906200025b92919062000c39565b506040805190810160405280600281526020017f3078000000000000000000000000000000000000000000000000000000000000815250816003019080519060200190620002ab92919062000c39565b5060008160060160006101000a81548173ffffffffffffffffffffffffffffffffffffffff021916908373ffffffffffffffffffffffffffffffffffffffff160217905550858160070160006101000a81548173ffffffffffffffffffffffffffffffffffffffff021916908373ffffffffffffffffffffffffffffffffffffffff1602179055506040805190810160405280600281526020017f30780000000000000000000000000000000000000000000000000000000000008152508160080190805190602001906200038292919062000c39565b50838160090190805190602001906200039d92919062000c39565b506040805190810160405280600281526020017f307800000000000000000000000000000000000000000000000000000000000081525081600a019080519060200190620003ed92919062000c39565b506040805190810160405280600281526020017f307800000000000000000000000000000000000000000000000000000000000081525081600b0190805190602001906200043d92919062000c39565b506040805190810160405280600181526020017f310000000000000000000000000000000000000000000000000000000000000081525081600c0190805190602001906200048d92919062000c39565b506040805190810160405280600281526020017f307800000000000000000000000000000000000000000000000000000000000081525081600d019080519060200190620004dd92919062000c39565b506000600e81620004ef919062000cf5565b506000600f8162000501919062000d2a565b5062000520620005446401000000000262004a42176401000000009004565b600b90805190602001906200053792919062000c39565b505050505050506200110b565b6200054e62000d5f565b6200055862000d5f565b60008060006200056762000d5f565b6200057162000d5f565b6200057b62000d5f565b6200059a426200067b6401000000000262004b01176401000000009004565b9650600d805490509550600e805490509450600f805490509350620005d3866200067b6401000000000262004b01176401000000009004565b9250620005f4856200067b6401000000000262004b01176401000000009004565b915062000615846200067b6401000000000262004b01176401000000009004565b90506200066f876040805190810160405280600181526020017f2d00000000000000000000000000000000000000000000000000000000000000815250858585620007dc6401000000000262004c53176401000000009004565b97505050505050505090565b6200068562000d5f565b6000806200069262000d73565b600080861415620006db576040805190810160405280600181526020017f30000000000000000000000000000000000000000000000000000000000000008152509450620007d3565b8593505b60008414151562000708578280600101935050600a84811515620006ff57fe5b049350620006df565b82604051805910620007175750595b9080825280601f01601f191660200182016040525091506001830390505b600086141515620007cf57600a868115156200074d57fe5b066030017f0100000000000000000000000000000000000000000000000000000000000000028282806001900393508151811015156200078957fe5b9060200101907effffffffffffffffffffffffffffffffffffffffffffffffffffffffffffff1916908160001a905350600a86811515620007c657fe5b04955062000735565b8194505b50505050919050565b620007e662000d5f565b620007f062000d73565b620007fa62000d73565b6200080462000d73565b6200080e62000d73565b6200081862000d73565b6200082262000d5f565b6200082c62000d73565b6000808e98508d97508c96508b95508a94508451865188518a518c51010101016040518059106200085a5750595b9080825280601f01601f1916602001820160405250935083925060009150600090505b8851811015620009345788818151811015156200089657fe5b9060200101517f010000000000000000000000000000000000000000000000000000000000000090047f0100000000000000000000000000000000000000000000000000000000000000028383806001019450815181101515620008f657fe5b9060200101907effffffffffffffffffffffffffffffffffffffffffffffffffffffffffffff1916908160001a90535080806001019150506200087d565b600090505b8751811015620009f05787818151811015156200095257fe5b9060200101517f010000000000000000000000000000000000000000000000000000000000000090047f0100000000000000000000000000000000000000000000000000000000000000028383806001019450815181101515620009b257fe5b9060200101907effffffffffffffffffffffffffffffffffffffffffffffffffffffffffffff1916908160001a905350808060010191505062000939565b600090505b865181101562000aac57868181518110151562000a0e57fe5b9060200101517f010000000000000000000000000000000000000000000000000000000000000090047f010000000000000000000000000000000000000000000000000000000000000002838380600101945081518110151562000a6e57fe5b9060200101907effffffffffffffffffffffffffffffffffffffffffffffffffffffffffffff1916908160001a9053508080600101915050620009f5565b600090505b855181101562000b6857858181518110151562000aca57fe5b9060200101517f010000000000000000000000000000000000000000000000000000000000000090047f010000000000000000000000000000000000000000000000000000000000000002838380600101945081518110151562000b2a57fe5b9060200101907effffffffffffffffffffffffffffffffffffffffffffffffffffffffffffff1916908160001a905350808060010191505062000ab1565b600090505b845181101562000c2457848181518110151562000b8657fe5b9060200101517f010000000000000000000000000000000000000000000000000000000000000090047f010000000000000000000000000000000000000000000000000000000000000002838380600101945081518110151562000be657fe5b9060200101907effffffffffffffffffffffffffffffffffffffffffffffffffffffffffffff1916908160001a905350808060010191505062000b6d565b82995050505050505050505095945050505050565b828054600181600116156101000203166002900490600052602060002090601f016020900481019282601f1062000c7c57805160ff191683800117855562000cad565b8280016001018555821562000cad579182015b8281111562000cac57825182559160200191906001019062000c8f565b5b50905062000cbc919062000d87565b5090565b81548183558181151162000cf057600e0281600e02836000526020600020918201910162000cef919062000daf565b5b505050565b81548183558181151162000d2557600c0281600c02836000526020600020918201910162000d24919062000ef8565b5b505050565b81548183558181151162000d5a57600c0281600c02836000526020600020918201910162000d59919062000fb6565b5b505050565b602060405190810160405280600081525090565b602060405190810160405280600081525090565b62000dac91905b8082111562000da857600081600090555060010162000d8e565b5090565b90565b62000ef591905b8082111562000ef157600080820160006101000a81549073ffffffffffffffffffffffffffffffffffffffff021916905560018201600062000df99190620010bf565b60028201600062000e0b9190620010bf565b60038201600062000e1d9190620010bf565b600482016000905560058201600090556006820160006101000a81549073ffffffffffffffffffffffffffffffffffffffff02191690556007820160006101000a81549073ffffffffffffffffffffffffffffffffffffffff021916905560088201600062000e8d9190620010bf565b60098201600062000e9f9190620010bf565b600a8201600062000eb19190620010bf565b600b8201600062000ec39190620010bf565b600c8201600062000ed59190620010bf565b600d8201600062000ee79190620010bf565b50600e0162000db6565b5090565b90565b62000fb391905b8082111562000faf5760008082016000905560018201600090556002820160009055600382016000905560048201600062000f3b9190620010bf565b60058201600062000f4d9190620010bf565b60068201600062000f5f9190620010bf565b60078201600062000f719190620010bf565b60088201600090556009820160009055600a8201600062000f939190620010bf565b600b8201600062000fa59190620010bf565b50600c0162000eff565b5090565b90565b620010bc91905b80821115620010b857600080820160006101000a81549073ffffffffffffffffffffffffffffffffffffffff02191690556001820160006101000a81549073ffffffffffffffffffffffffffffffffffffffff0219169055600282016000905560038201600090556004820160006101000a81549060ff0219169055600582016000905560068201600090556007820160009055600882016000620010639190620010bf565b6009820160006101000a81549073ffffffffffffffffffffffffffffffffffffffff0219169055600a820160006200109c9190620010bf565b600b82016000620010ae9190620010bf565b50600c0162000fbd565b5090565b90565b50805460018160011615610100020316600290046000825580601f10620010e7575062001108565b601f01602090049060005260206000209081019062001107919062000d87565b5b50565b6155ed806200111b6000396000f3006060604052600436106101a1576000357c0100000000000000000000000000000000000000000000000000000000900463ffffffff16806309868914146101a657806315b1c01c146103b05780632665acbe1461067557806329f8e759146106c25780632a8e5e5d146106e45780632df5e31c146107315780632e7700f0146108aa57806332fe122f146108d35780633c8c914314610961578063494f5d3114610b495780634c02073014610b7257806354e2ecf014610be35780635cd3732714610c0c57806375505e8214610c9a57806377da19c814610da2578063866f5d851461108d5780638da5cb5b146113215780638edfef31146113765780639292260e146113cc578063a772790c14611609578063a98e4e7714611697578063ae476d12146116c0578063ae82d65c14611890578063b32c65c8146118b9578063bbec5aa9146118e2578063c8a6baa7146119a6578063ceedb098146119fb578063d19757db14611a24578063d6cbadac14611b2f578063d947969214611bbd578063eb2a49f514611c4b578063f157c0ac14611c74578063f7044bae14611e1b575b600080fd5b34156101b157600080fd5b6101c76004808035906020019091905050611e44565b604051808b81526020018a81526020018981526020018881526020018060200180602001878152602001868152602001806020018060200185810385528b818151815260200191508051906020019080838360005b8381101561023757808201518184015260208101905061021c565b50505050905090810190601f1680156102645780820380516001836020036101000a031916815260200191505b5085810384528a818151815260200191508051906020019080838360005b8381101561029d578082015181840152602081019050610282565b50505050905090810190601f1680156102ca5780820380516001836020036101000a031916815260200191505b50858103835287818151815260200191508051906020019080838360005b838110156103035780820151818401526020810190506102e8565b50505050905090810190601f1680156103305780820380516001836020036101000a031916815260200191505b50858103825286818151815260200191508051906020019080838360005b8381101561036957808201518184015260208101905061034e565b50505050905090810190601f1680156103965780820380516001836020036101000a031916815260200191505b509e50505050505050505050505050505060405180910390f35b61065f600480803573ffffffffffffffffffffffffffffffffffffffff1690602001909190803590602001908201803590602001908080601f0160208091040260200160405190810160405280939291908181526020018383808284378201915050505050509190803590602001908201803590602001908080601f0160208091040260200160405190810160405280939291908181526020018383808284378201915050505050509190803590602001908201803590602001908080601f0160208091040260200160405190810160405280939291908181526020018383808284378201915050505050509190803590602001909190803573ffffffffffffffffffffffffffffffffffffffff1690602001909190803590602001908201803590602001908080601f0160208091040260200160405190810160405280939291908181526020018383808284378201915050505050509190803590602001908201803590602001908080601f0160208091040260200160405190810160405280939291908181526020018383808284378201915050505050509190803590602001908201803590602001908080601f0160208091040260200160405190810160405280939291908181526020018383808284378201915050505050509190803590602001908201803590602001908080601f0160208091040260200160405190810160405280939291908181526020018383808284378201915050505050509190803590602001908201803590602001908080601f0160208091040260200160405190810160405280939291908181526020018383808284378201915050505050509190803590602001908201803590602001908080601f01602080910402602001604051908101604052809392919081815260200183838082843782019150505050505091905050612167565b6040518082815260200191505060405180910390f35b341561068057600080fd5b6106ac600480803573ffffffffffffffffffffffffffffffffffffffff169060200190919050506123ab565b6040518082815260200191505060405180910390f35b6106ca612478565b604051808215151515815260200191505060405180910390f35b34156106ef57600080fd5b61071b600480803573ffffffffffffffffffffffffffffffffffffffff16906020019091905050612523565b6040518082815260200191505060405180910390f35b610894600480803590602001909190803573ffffffffffffffffffffffffffffffffffffffff1690602001909190803573ffffffffffffffffffffffffffffffffffffffff1690602001909190803560ff1690602001909190803590602001909190803590602001908201803590602001908080601f0160208091040260200160405190810160405280939291908181526020018383808284378201915050505050509190803590602001909190803590602001909190803590602001908201803590602001908080601f0160208091040260200160405190810160405280939291908181526020018383808284378201915050505050509190803573ffffffffffffffffffffffffffffffffffffffff1690602001909190803590602001908201803590602001908080601f016020809104026020016040519081016040528093929190818152602001838380828437820191505050505050919050506125f0565b6040518082815260200191505060405180910390f35b34156108b557600080fd5b6108bd61289b565b6040518082815260200191505060405180910390f35b34156108de57600080fd5b6108e66128a8565b6040518080602001828103825283818151815260200191508051906020019080838360005b8381101561092657808201518184015260208101905061090b565b50505050905090810190601f1680156109535780820380516001836020036101000a031916815260200191505b509250505060405180910390f35b341561096c57600080fd5b6109826004808035906020019091905050612946565b604051808873ffffffffffffffffffffffffffffffffffffffff1673ffffffffffffffffffffffffffffffffffffffff1681526020018060200180602001806020018781526020018681526020018573ffffffffffffffffffffffffffffffffffffffff1673ffffffffffffffffffffffffffffffffffffffff16815260200184810384528a818151815260200191508051906020019080838360005b83811015610a3a578082015181840152602081019050610a1f565b50505050905090810190601f168015610a675780820380516001836020036101000a031916815260200191505b50848103835289818151815260200191508051906020019080838360005b83811015610aa0578082015181840152602081019050610a85565b50505050905090810190601f168015610acd5780820380516001836020036101000a031916815260200191505b50848103825288818151815260200191508051906020019080838360005b83811015610b06578082015181840152602081019050610aeb565b50505050905090810190601f168015610b335780820380516001836020036101000a031916815260200191505b509a505050505050505050505060405180910390f35b3415610b5457600080fd5b610b5c612bf0565b6040518082815260200191505060405180910390f35b3415610b7d57600080fd5b610bcd600480803590602001908201803590602001908080601f01602080910402602001604051908101604052809392919081815260200183838082843782019150505050505091905050612bf6565b6040518082815260200191505060405180910390f35b3415610bee57600080fd5b610bf6612c7d565b6040518082815260200191505060405180910390f35b3415610c1757600080fd5b610c1f612c83565b6040518080602001828103825283818151815260200191508051906020019080838360005b83811015610c5f578082015181840152602081019050610c44565b50505050905090810190601f168015610c8c5780820380516001836020036101000a031916815260200191505b509250505060405180910390f35b3415610ca557600080fd5b610cbb6004808035906020019091905050612d21565b604051808060200180602001838103835285818151815260200191508051906020019080838360005b83811015610cff578082015181840152602081019050610ce4565b50505050905090810190601f168015610d2c5780820380516001836020036101000a031916815260200191505b50838103825284818151815260200191508051906020019080838360005b83811015610d65578082015181840152602081019050610d4a565b50505050905090810190601f168015610d925780820380516001836020036101000a031916815260200191505b5094505050505060405180910390f35b3415610dad57600080fd5b610dc36004808035906020019091905050612ebb565b604051808873ffffffffffffffffffffffffffffffffffffffff1673ffffffffffffffffffffffffffffffffffffffff16815260200180602001806020018060200180602001806020018060200187810387528d818151815260200191508051906020019080838360005b83811015610e49578082015181840152602081019050610e2e565b50505050905090810190601f168015610e765780820380516001836020036101000a031916815260200191505b5087810386528c818151815260200191508051906020019080838360005b83811015610eaf578082015181840152602081019050610e94565b50505050905090810190601f168015610edc5780820380516001836020036101000a031916815260200191505b5087810385528b818151815260200191508051906020019080838360005b83811015610f15578082015181840152602081019050610efa565b50505050905090810190601f168015610f425780820380516001836020036101000a031916815260200191505b5087810384528a818151815260200191508051906020019080838360005b83811015610f7b578082015181840152602081019050610f60565b50505050905090810190601f168015610fa85780820380516001836020036101000a031916815260200191505b50878103835289818151815260200191508051906020019080838360005b83811015610fe1578082015181840152602081019050610fc6565b50505050905090810190601f16801561100e5780820380516001836020036101000a031916815260200191505b50878103825288818151815260200191508051906020019080838360005b8381101561104757808201518184015260208101905061102c565b50505050905090810190601f1680156110745780820380516001836020036101000a031916815260200191505b509d505050505050505050505050505060405180910390f35b341561109857600080fd5b6110ae6004808035906020019091905050613320565b604051808d73ffffffffffffffffffffffffffffffffffffffff1673ffffffffffffffffffffffffffffffffffffffff1681526020018c73ffffffffffffffffffffffffffffffffffffffff1673ffffffffffffffffffffffffffffffffffffffff1681526020018b81526020018a81526020018960ff1660ff168152602001888152602001878152602001868152602001806020018573ffffffffffffffffffffffffffffffffffffffff1673ffffffffffffffffffffffffffffffffffffffff16815260200180602001806020018481038452888181546001816001161561010002031660029004815260200191508054600181600116156101000203166002900480156111ff5780601f106111d4576101008083540402835291602001916111ff565b820191906000526020600020905b8154815290600101906020018083116111e257829003601f168201915b50508481038352868181546001816001161561010002031660029004815260200191508054600181600116156101000203166002900480156112825780601f1061125757610100808354040283529160200191611282565b820191906000526020600020905b81548152906001019060200180831161126557829003601f168201915b50508481038252858181546001816001161561010002031660029004815260200191508054600181600116156101000203166002900480156113055780601f106112da57610100808354040283529160200191611305565b820191906000526020600020905b8154815290600101906020018083116112e857829003601f168201915b50509f5050505050505050505050505050505060405180910390f35b341561132c57600080fd5b6113346133f9565b604051808273ffffffffffffffffffffffffffffffffffffffff1673ffffffffffffffffffffffffffffffffffffffff16815260200191505060405180910390f35b341561138157600080fd5b6113b6600480803573ffffffffffffffffffffffffffffffffffffffff1690602001909190803590602001909190505061341f565b6040518082815260200191505060405180910390f35b34156113d757600080fd5b6113ed6004808035906020019091905050613656565b604051808d73ffffffffffffffffffffffffffffffffffffffff1673ffffffffffffffffffffffffffffffffffffffff1681526020018c73ffffffffffffffffffffffffffffffffffffffff1673ffffffffffffffffffffffffffffffffffffffff1681526020018b81526020018a81526020018960ff1660ff16815260200188815260200180602001878152602001868152602001806020018573ffffffffffffffffffffffffffffffffffffffff1673ffffffffffffffffffffffffffffffffffffffff1681526020018060200184810384528a818151815260200191508051906020019080838360005b838110156114f55780820151818401526020810190506114da565b50505050905090810190601f1680156115225780820380516001836020036101000a031916815260200191505b50848103835287818151815260200191508051906020019080838360005b8381101561155b578082015181840152602081019050611540565b50505050905090810190601f1680156115885780820380516001836020036101000a031916815260200191505b50848103825285818151815260200191508051906020019080838360005b838110156115c15780820151818401526020810190506115a6565b50505050905090810190601f1680156115ee5780820380516001836020036101000a031916815260200191505b509f5050505050505050505050505050505060405180910390f35b341561161457600080fd5b61161c61395e565b6040518080602001828103825283818151815260200191508051906020019080838360005b8381101561165c578082015181840152602081019050611641565b50505050905090810190601f1680156116895780820380516001836020036101000a031916815260200191505b509250505060405180910390f35b34156116a257600080fd5b6116aa6139fc565b6040518082815260200191505060405180910390f35b61187a600480803590602001908201803590602001908080601f0160208091040260200160405190810160405280939291908181526020018383808284378201915050505050509190803590602001908201803590602001908080601f0160208091040260200160405190810160405280939291908181526020018383808284378201915050505050509190803590602001909190803590602001909190803590602001909190803590602001908201803590602001908080601f0160208091040260200160405190810160405280939291908181526020018383808284378201915050505050509190803590602001908201803590602001908080601f0160208091040260200160405190810160405280939291908181526020018383808284378201915050505050509190803590602001908201803590602001908080601f0160208091040260200160405190810160405280939291908181526020018383808284378201915050505050509190803590602001908201803590602001908080601f01602080910402602001604051908101604052809392919081815260200183838082843782019150505050505091905050613a09565b6040518082815260200191505060405180910390f35b341561189b57600080fd5b6118a3613d83565b6040518082815260200191505060405180910390f35b34156118c457600080fd5b6118cc613d90565b6040518082815260200191505060405180910390f35b611990600480803590602001909190803590602001909190803590602001908201803590602001908080601f0160208091040260200160405190810160405280939291908181526020018383808284378201915050505050509190803590602001909190803590602001908201803590602001908080601f01602080910402602001604051908101604052809392919081815260200183838082843782019150505050505091905050613d96565b6040518082815260200191505060405180910390f35b34156119b157600080fd5b6119b9614309565b604051808273ffffffffffffffffffffffffffffffffffffffff1673ffffffffffffffffffffffffffffffffffffffff16815260200191505060405180910390f35b3415611a0657600080fd5b611a0e61432f565b6040518082815260200191505060405180910390f35b611b19600480803573ffffffffffffffffffffffffffffffffffffffff1690602001909190803590602001908201803590602001908080601f0160208091040260200160405190810160405280939291908181526020018383808284378201915050505050509190803590602001908201803590602001908080601f0160208091040260200160405190810160405280939291908181526020018383808284378201915050505050509190803590602001908201803590602001908080601f01602080910402602001604051908101604052809392919081815260200183838082843782019150505050505091905050614335565b6040518082815260200191505060405180910390f35b3415611b3a57600080fd5b611b426144fe565b6040518080602001828103825283818151815260200191508051906020019080838360005b83811015611b82578082015181840152602081019050611b67565b50505050905090810190601f168015611baf5780820380516001836020036101000a031916815260200191505b509250505060405180910390f35b3415611bc857600080fd5b611bd061459c565b6040518080602001828103825283818151815260200191508051906020019080838360005b83811015611c10578082015181840152602081019050611bf5565b50505050905090810190601f168015611c3d5780820380516001836020036101000a031916815260200191505b509250505060405180910390f35b3415611c5657600080fd5b611c5e61463a565b6040518082815260200191505060405180910390f35b3415611c7f57600080fd5b611c956004808035906020019091905050614640565b604051808573ffffffffffffffffffffffffffffffffffffffff1673ffffffffffffffffffffffffffffffffffffffff168152602001806020018060200180602001848103845287818151815260200191508051906020019080838360005b83811015611d0f578082015181840152602081019050611cf4565b50505050905090810190601f168015611d3c5780820380516001836020036101000a031916815260200191505b50848103835286818151815260200191508051906020019080838360005b83811015611d75578082015181840152602081019050611d5a565b50505050905090810190601f168015611da25780820380516001836020036101000a031916815260200191505b50848103825285818151815260200191508051906020019080838360005b83811015611ddb578082015181840152602081019050611dc0565b50505050905090810190601f168015611e085780820380516001836020036101000a031916815260200191505b5097505050505050505060405180910390f35b3415611e2657600080fd5b611e2e6148ac565b6040518082815260200191505060405180910390f35b600080600080611e5261508b565b611e5a61508b565b600080611e6561508b565b611e6d61508b565b600080600e80549050915060008d10158015611e885750818d105b1515611e9357600080fd5b600e8d815481101515611ea257fe5b90600052602060002090600c0201905080600001549b5080600101549a508060020154995080600301549850806004018054600181600116156101000203166002900480601f016020809104026020016040519081016040528092919081815260200182805460018160011615610100020316600290048015611f665780601f10611f3b57610100808354040283529160200191611f66565b820191906000526020600020905b815481529060010190602001808311611f4957829003601f168201915b50505050509750806005018054600181600116156101000203166002900480601f0160208091040260200160405190810160405280929190818152602001828054600181600116156101000203166002900480156120055780601f10611fda57610100808354040283529160200191612005565b820191906000526020600020905b815481529060010190602001808311611fe857829003601f168201915b50505050509650806008015495508060090154945080600a018054600181600116156101000203166002900480601f0160208091040260200160405190810160405280929190818152602001828054600181600116156101000203166002900480156120b25780601f10612087576101008083540402835291602001916120b2565b820191906000526020600020905b81548152906001019060200180831161209557829003601f168201915b5050505050935080600b018054600181600116156101000203166002900480601f0160208091040260200160405190810160405280929190818152602001828054600181600116156101000203166002900480156121515780601f1061212657610100808354040283529160200191612151565b820191906000526020600020905b81548152906001019060200180831161213457829003601f168201915b5050505050925050509193959799509193959799565b6000806000612177600b886148b9565b151561218257600080fd5b61218a614a42565b600b908051906020019061219f92919061509f565b50600d80549050915060018201600d816121b9919061511f565b50600d828154811015156121c957fe5b90600052602060002090600e020190508e8160000160006101000a81548173ffffffffffffffffffffffffffffffffffffffff021916908373ffffffffffffffffffffffffffffffffffffffff1602179055508d81600101908051906020019061223492919061509f565b508c81600201908051906020019061224d92919061509f565b508b81600301908051906020019061226692919061509f565b508a816004018190555042816005018190555060008160060160006101000a81548173ffffffffffffffffffffffffffffffffffffffff021916908373ffffffffffffffffffffffffffffffffffffffff160217905550898160070160006101000a81548173ffffffffffffffffffffffffffffffffffffffff021916908373ffffffffffffffffffffffffffffffffffffffff1602179055508881600801908051906020019061231892919061509f565b508781600901908051906020019061233192919061509f565b508681600c01908051906020019061234a92919061509f565b508581600d01908051906020019061236392919061509f565b508481600a01908051906020019061237c92919061509f565b508381600b01908051906020019061239592919061509f565b5081925050509c9b505050505050505050505050565b60008060007fffffffffffffffffffffffffffffffffffffffffffffffffffffffffffffffff9250600091505b600d8054905082101561247157600d828154811015156123f457fe5b90600052602060002090600e020190508373ffffffffffffffffffffffffffffffffffffffff168160000160009054906101000a900473ffffffffffffffffffffffffffffffffffffffff1673ffffffffffffffffffffffffffffffffffffffff16141561246457819250612471565b81806001019250506123d8565b5050919050565b6000803073ffffffffffffffffffffffffffffffffffffffff1631111561251b57600260009054906101000a900473ffffffffffffffffffffffffffffffffffffffff1673ffffffffffffffffffffffffffffffffffffffff166108fc3073ffffffffffffffffffffffffffffffffffffffff16319081150290604051600060405180830381858888f19350505050151561251257600080fd5b60019050612520565b600090505b90565b60008060007fffffffffffffffffffffffffffffffffffffffffffffffffffffffffffffffff9250600091505b600c805490508210156125e957600c8281548110151561256c57fe5b906000526020600020906004020190508373ffffffffffffffffffffffffffffffffffffffff168160000160009054906101000a900473ffffffffffffffffffffffffffffffffffffffff1673ffffffffffffffffffffffffffffffffffffffff1614156125dc578192506125e9565b8180600101925050612550565b5050919050565b600080600080612601600b8b6148b9565b151561260c57600080fd5b612614614a42565b600b908051906020019061262992919061509f565b50600a8c60ff1611151561269857600260009054906101000a900473ffffffffffffffffffffffffffffffffffffffff1673ffffffffffffffffffffffffffffffffffffffff168673ffffffffffffffffffffffffffffffffffffffff1614151561269357600080fd5b6126d3565b8d73ffffffffffffffffffffffffffffffffffffffff168673ffffffffffffffffffffffffffffffffffffffff161415156126d257600080fd5b5b600f80549050925060018301600f816126ec9190615151565b50600f838154811015156126fc57fe5b90600052602060002090600c020191508b8260040160006101000a81548160ff021916908360ff1602179055508d8260000160006101000a81548173ffffffffffffffffffffffffffffffffffffffff021916908373ffffffffffffffffffffffffffffffffffffffff1602179055508c8260010160006101000a81548173ffffffffffffffffffffffffffffffffffffffff021916908373ffffffffffffffffffffffffffffffffffffffff16021790555088826002018190555042826003018190555060018b039050600e80549050811015156127da57600080fd5b808260050181905550858260090160006101000a81548173ffffffffffffffffffffffffffffffffffffffff021916908373ffffffffffffffffffffffffffffffffffffffff1602179055508982600a01908051906020019061283e92919061509f565b508482600b01908051906020019061285792919061509f565b508e82600601819055508782600701819055508682600801908051906020019061288292919061509f565b506001830193505050509b9a5050505050505050505050565b6000600f80549050905090565b60038054600181600116156101000203166002900480601f01602080910402602001604051908101604052809291908181526020018280546001816001161561010002031660029004801561293e5780601f106129135761010080835404028352916020019161293e565b820191906000526020600020905b81548152906001019060200180831161292157829003601f168201915b505050505081565b600061295061508b565b61295861508b565b61296061508b565b6000806000806000600d80549050915060008a101580156129805750818a105b151561298b57600080fd5b600d8a81548110151561299a57fe5b90600052602060002090600e020190508060000160009054906101000a900473ffffffffffffffffffffffffffffffffffffffff169850806001018054600181600116156101000203166002900480601f016020809104026020016040519081016040528092919081815260200182805460018160011615610100020316600290048015612a695780601f10612a3e57610100808354040283529160200191612a69565b820191906000526020600020905b815481529060010190602001808311612a4c57829003601f168201915b50505050509750806002018054600181600116156101000203166002900480601f016020809104026020016040519081016040528092919081815260200182805460018160011615610100020316600290048015612b085780601f10612add57610100808354040283529160200191612b08565b820191906000526020600020905b815481529060010190602001808311612aeb57829003601f168201915b50505050509650806003018054600181600116156101000203166002900480601f016020809104026020016040519081016040528092919081815260200182805460018160011615610100020316600290048015612ba75780601f10612b7c57610100808354040283529160200191612ba7565b820191906000526020600020905b815481529060010190602001808311612b8a57829003601f168201915b5050505050955080600401549450806005015493508060060160009054906101000a900473ffffffffffffffffffffffffffffffffffffffff1692505050919395979092949650565b600a5481565b60008060007fffffffffffffffffffffffffffffffffffffffffffffffffffffffffffffffff9250600091505b600f80549050821015612c7657600f82815481101515612c3f57fe5b90600052602060002090600c02019050612c5c81600a01856148b9565b15612c6957819250612c76565b8180600101925050612c23565b5050919050565b60065481565b60048054600181600116156101000203166002900480601f016020809104026020016040519081016040528092919081815260200182805460018160011615610100020316600290048015612d195780601f10612cee57610100808354040283529160200191612d19565b820191906000526020600020905b815481529060010190602001808311612cfc57829003601f168201915b505050505081565b612d2961508b565b612d3161508b565b600080600e80549050915060008510158015612d4c57508185105b1515612d5757600080fd5b600e85815481101515612d6657fe5b90600052602060002090600c02019050806006018054600181600116156101000203166002900480601f016020809104026020016040519081016040528092919081815260200182805460018160011615610100020316600290048015612e0e5780601f10612de357610100808354040283529160200191612e0e565b820191906000526020600020905b815481529060010190602001808311612df157829003601f168201915b50505050509350806007018054600181600116156101000203166002900480601f016020809104026020016040519081016040528092919081815260200182805460018160011615610100020316600290048015612ead5780601f10612e8257610100808354040283529160200191612ead565b820191906000526020600020905b815481529060010190602001808311612e9057829003601f168201915b505050505092505050915091565b6000612ec561508b565b612ecd61508b565b612ed561508b565b612edd61508b565b612ee561508b565b612eed61508b565b600080600d80549050915060008a10158015612f085750818a105b1515612f1357600080fd5b600d8a815481101515612f2257fe5b90600052602060002090600e020190508060070160009054906101000a900473ffffffffffffffffffffffffffffffffffffffff169850806008018054600181600116156101000203166002900480601f016020809104026020016040519081016040528092919081815260200182805460018160011615610100020316600290048015612ff15780601f10612fc657610100808354040283529160200191612ff1565b820191906000526020600020905b815481529060010190602001808311612fd457829003601f168201915b50505050509750806009018054600181600116156101000203166002900480601f0160208091040260200160405190810160405280929190818152602001828054600181600116156101000203166002900480156130905780601f1061306557610100808354040283529160200191613090565b820191906000526020600020905b81548152906001019060200180831161307357829003601f168201915b5050505050965080600a018054600181600116156101000203166002900480601f01602080910402602001604051908101604052809291908181526020018280546001816001161561010002031660029004801561312f5780601f106131045761010080835404028352916020019161312f565b820191906000526020600020905b81548152906001019060200180831161311257829003601f168201915b5050505050935080600b018054600181600116156101000203166002900480601f0160208091040260200160405190810160405280929190818152602001828054600181600116156101000203166002900480156131ce5780601f106131a3576101008083540402835291602001916131ce565b820191906000526020600020905b8154815290600101906020018083116131b157829003601f168201915b5050505050925080600c018054600181600116156101000203166002900480601f01602080910402602001604051908101604052809291908181526020018280546001816001161561010002031660029004801561326d5780601f106132425761010080835404028352916020019161326d565b820191906000526020600020905b81548152906001019060200180831161325057829003601f168201915b5050505050955080600d018054600181600116156101000203166002900480601f01602080910402602001604051908101604052809291908181526020018280546001816001161561010002031660029004801561330c5780601f106132e15761010080835404028352916020019161330c565b820191906000526020600020905b8154815290600101906020018083116132ef57829003601f168201915b505050505094505050919395979092949650565b600f8181548110151561332f57fe5b90600052602060002090600c02016000915090508060000160009054906101000a900473ffffffffffffffffffffffffffffffffffffffff16908060010160009054906101000a900473ffffffffffffffffffffffffffffffffffffffff16908060020154908060030154908060040160009054906101000a900460ff169080600501549080600601549080600701549080600801908060090160009054906101000a900473ffffffffffffffffffffffffffffffffffffffff169080600a019080600b0190508c565b600260009054906101000a900473ffffffffffffffffffffffffffffffffffffffff1681565b60008060008060009350600185039250600e805490508310151561344257600080fd5b600091505b600f8054905082101561364d57600f8281548110151561346357fe5b90600052602060002090600c0201905082816005015414156136405760008160040160009054906101000a900460ff1660ff16141561355c57600260009054906101000a900473ffffffffffffffffffffffffffffffffffffffff1673ffffffffffffffffffffffffffffffffffffffff168673ffffffffffffffffffffffffffffffffffffffff1614801561354857508573ffffffffffffffffffffffffffffffffffffffff168160010160009054906101000a900473ffffffffffffffffffffffffffffffffffffffff1673ffffffffffffffffffffffffffffffffffffffff16145b15613557578060060154840193505b61363f565b60018160040160009054906101000a900460ff1660ff16141561363e578573ffffffffffffffffffffffffffffffffffffffff168160000160009054906101000a900473ffffffffffffffffffffffffffffffffffffffff1673ffffffffffffffffffffffffffffffffffffffff1614156135db578060060154840393505b8573ffffffffffffffffffffffffffffffffffffffff168160010160009054906101000a900473ffffffffffffffffffffffffffffffffffffffff1673ffffffffffffffffffffffffffffffffffffffff16141561363d578060060154840193505b5b5b5b8180600101925050613447565b50505092915050565b60008060008060008061366761508b565b60008061367261508b565b600061367c61508b565b600080600f80549050915060008f101580156136975750818f105b15156136a257600080fd5b600f8f8154811015156136b157fe5b90600052602060002090600c020190508060000160009054906101000a900473ffffffffffffffffffffffffffffffffffffffff169d508060010160009054906101000a900473ffffffffffffffffffffffffffffffffffffffff169c5080600201549b5080600301549a508060040160009054906101000a900460ff169950600181600501540198508060090160009054906101000a900473ffffffffffffffffffffffffffffffffffffffff16935080600a018054600181600116156101000203166002900480601f0160208091040260200160405190810160405280929190818152602001828054600181600116156101000203166002900480156137fa5780601f106137cf576101008083540402835291602001916137fa565b820191906000526020600020905b8154815290600101906020018083116137dd57829003601f168201915b5050505050975080600b018054600181600116156101000203166002900480601f0160208091040260200160405190810160405280929190818152602001828054600181600116156101000203166002900480156138995780601f1061386e57610100808354040283529160200191613899565b820191906000526020600020905b81548152906001019060200180831161387c57829003601f168201915b505050505092508060060154965080600701549550806008018054600181600116156101000203166002900480601f0160208091040260200160405190810160405280929190818152602001828054600181600116156101000203166002900480156139465780601f1061391b57610100808354040283529160200191613946565b820191906000526020600020905b81548152906001019060200180831161392957829003601f168201915b50505050509450505091939597999b5091939597999b565b600b8054600181600116156101000203166002900480601f0160208091040260200160405190810160405280929190818152602001828054600181600116156101000203166002900480156139f45780601f106139c9576101008083540402835291602001916139f4565b820191906000526020600020905b8154815290600101906020018083116139d757829003601f168201915b505050505081565b6000600c80549050905090565b6000806000806000613a1c600b8a6148b9565b1515613a2757600080fd5b613a2f614a42565b600b9080519060200190613a4492919061509f565b50600e80549050935060018401600e81613a5e9190615183565b50600e84815481101515613a6e57fe5b90600052602060002090600c020192508d836004019080519060200190613a9692919061509f565b508c836005019080519060200190613aaf92919061509f565b508b83600001819055508a836001018190555086836006019080519060200190613ada92919061509f565b5085836007019080519060200190613af392919061509f565b508983600201819055504283600301819055508883600a019080519060200190613b1e92919061509f565b508783600b019080519060200190613b3792919061509f565b50600f80549050915060018201600f81613b519190615151565b50600f82815481101515613b6157fe5b90600052602060002090600c0201905060008160040160006101000a81548160ff021916908360ff160217905550600260009054906101000a900473ffffffffffffffffffffffffffffffffffffffff168160000160006101000a81548173ffffffffffffffffffffffffffffffffffffffff021916908373ffffffffffffffffffffffffffffffffffffffff160217905550600260009054906101000a900473ffffffffffffffffffffffffffffffffffffffff168160010160006101000a81548173ffffffffffffffffffffffffffffffffffffffff021916908373ffffffffffffffffffffffffffffffffffffffff160217905550898160020181905550428160030181905550838160050181905550600260009054906101000a900473ffffffffffffffffffffffffffffffffffffffff168160090160006101000a81548173ffffffffffffffffffffffffffffffffffffffff021916908373ffffffffffffffffffffffffffffffffffffffff1602179055508881600a019080519060200190613cf192919061509f565b508781600b019080519060200190613d0a92919061509f565b508b8160060181905550600081600701819055506040805190810160405280600181526020017f2d00000000000000000000000000000000000000000000000000000000000000815250816008019080519060200190613d6b92919061509f565b50600184019450505050509998505050505050505050565b6000600e80549050905090565b60015481565b6000806000806000806000613dac600b8b6148b9565b1515613db757600080fd5b613dbf614a42565b600b9080519060200190613dd492919061509f565b5060018c039550600e8054905086101515613dee57600080fd5b600e86815481101515613dfd57fe5b90600052602060002090600c0201945084600001549350838b14151515613e2357600080fd5b600f805490509250600f6000815481101515613e3b57fe5b90600052602060002090600c02019150838b10156140c857613e7f600260009054906101000a900473ffffffffffffffffffffffffffffffffffffffff168d61341f565b9050838b820110151515613e9257600080fd5b60018301600f81613ea39190615151565b50600f83815481101515613eb357fe5b90600052602060002090600c0201915060028260040160006101000a81548160ff021916908360ff160217905550600260009054906101000a900473ffffffffffffffffffffffffffffffffffffffff168260000160006101000a81548173ffffffffffffffffffffffffffffffffffffffff021916908373ffffffffffffffffffffffffffffffffffffffff160217905550600260009054906101000a900473ffffffffffffffffffffffffffffffffffffffff168260010160006101000a81548173ffffffffffffffffffffffffffffffffffffffff021916908373ffffffffffffffffffffffffffffffffffffffff160217905550888260020181905550428260030181905550858260050181905550600260009054906101000a900473ffffffffffffffffffffffffffffffffffffffff168260090160006101000a81548173ffffffffffffffffffffffffffffffffffffffff021916908373ffffffffffffffffffffffffffffffffffffffff1602179055508982600a01908051906020019061404392919061509f565b508782600b01908051906020019061405c92919061509f565b508a84038260060181905550600082600701819055506040805190810160405280600181526020017f2d000000000000000000000000000000000000000000000000000000000000008152508260080190805190602001906140bf92919061509f565b508296506142fa565b60018301600f816140d99190615151565b50600f838154811015156140e957fe5b90600052602060002090600c0201915060008260040160006101000a81548160ff021916908360ff160217905550600260009054906101000a900473ffffffffffffffffffffffffffffffffffffffff168260000160006101000a81548173ffffffffffffffffffffffffffffffffffffffff021916908373ffffffffffffffffffffffffffffffffffffffff160217905550600260009054906101000a900473ffffffffffffffffffffffffffffffffffffffff168260010160006101000a81548173ffffffffffffffffffffffffffffffffffffffff021916908373ffffffffffffffffffffffffffffffffffffffff160217905550888260020181905550428260030181905550858260050181905550600260009054906101000a900473ffffffffffffffffffffffffffffffffffffffff168260090160006101000a81548173ffffffffffffffffffffffffffffffffffffffff021916908373ffffffffffffffffffffffffffffffffffffffff1602179055508982600a01908051906020019061427992919061509f565b508782600b01908051906020019061429292919061509f565b50838b038260060181905550600082600701819055506040805190810160405280600181526020017f2d000000000000000000000000000000000000000000000000000000000000008152508260080190805190602001906142f592919061509f565b508296505b50505050505095945050505050565b600860009054906101000a900473ffffffffffffffffffffffffffffffffffffffff1681565b60095481565b6000806000803073ffffffffffffffffffffffffffffffffffffffff16632a8e5e5d896000604051602001526040518263ffffffff167c0100000000000000000000000000000000000000000000000000000000028152600401808273ffffffffffffffffffffffffffffffffffffffff1673ffffffffffffffffffffffffffffffffffffffff168152602001915050602060405180830381600087803b15156143de57600080fd5b6102c65a03f115156143ef57600080fd5b5050506040518051905092507fffffffffffffffffffffffffffffffffffffffffffffffffffffffffffffffff8314151561442957600080fd5b600c80549050915060018201600c8161444291906151b5565b50600c8281548110151561445257fe5b90600052602060002090600402019050878160000160006101000a81548173ffffffffffffffffffffffffffffffffffffffff021916908373ffffffffffffffffffffffffffffffffffffffff160217905550868160010190805190602001906144bd92919061509f565b50858160020190805190602001906144d692919061509f565b50848160030190805190602001906144ef92919061509f565b50819350505050949350505050565b60058054600181600116156101000203166002900480601f0160208091040260200160405190810160405280929190818152602001828054600181600116156101000203166002900480156145945780601f1061456957610100808354040283529160200191614594565b820191906000526020600020905b81548152906001019060200180831161457757829003601f168201915b505050505081565b60008054600181600116156101000203166002900480601f0160208091040260200160405190810160405280929190818152602001828054600181600116156101000203166002900480156146325780601f1061460757610100808354040283529160200191614632565b820191906000526020600020905b81548152906001019060200180831161461557829003601f168201915b505050505081565b60075481565b600061464a61508b565b61465261508b565b61465a61508b565b600080600c8054905091506000871015801561467557508187105b151561468057600080fd5b600c8781548110151561468f57fe5b906000526020600020906004020190508060000160009054906101000a900473ffffffffffffffffffffffffffffffffffffffff169550806001018054600181600116156101000203166002900480601f01602080910402602001604051908101604052809291908181526020018280546001816001161561010002031660029004801561475e5780601f106147335761010080835404028352916020019161475e565b820191906000526020600020905b81548152906001019060200180831161474157829003601f168201915b50505050509450806002018054600181600116156101000203166002900480601f0160208091040260200160405190810160405280929190818152602001828054600181600116156101000203166002900480156147fd5780601f106147d2576101008083540402835291602001916147fd565b820191906000526020600020905b8154815290600101906020018083116147e057829003601f168201915b50505050509350806003018054600181600116156101000203166002900480601f01602080910402602001604051908101604052809291908181526020018280546001816001161561010002031660029004801561489c5780601f106148715761010080835404028352916020019161489c565b820191906000526020600020905b81548152906001019060200180831161487f57829003601f168201915b5050505050925050509193509193565b6000600d80549050905090565b6000806148c46151e7565b60008592508491508151838054600181600116156101000203166002900490501415156148f45760009350614a39565b600090505b82805460018160011615610100020316600290049050811015614a3457818181518110151561492457fe5b9060200101517f010000000000000000000000000000000000000000000000000000000000000090047f0100000000000000000000000000000000000000000000000000000000000000027effffffffffffffffffffffffffffffffffffffffffffffffffffffffffffff1916838281546001816001161561010002031660029004811015156149b057fe5b8154600116156149cf5790600052602060002090602091828204019190065b9054901a7f0100000000000000000000000000000000000000000000000000000000000000027effffffffffffffffffffffffffffffffffffffffffffffffffffffffffffff1916141515614a275760009350614a39565b80806001019150506148f9565b600193505b50505092915050565b614a4a61508b565b614a5261508b565b6000806000614a5f61508b565b614a6761508b565b614a6f61508b565b614a7842614b01565b9650600d805490509550600e805490509450600f805490509350614a9b86614b01565b9250614aa685614b01565b9150614ab184614b01565b9050614af5876040805190810160405280600181526020017f2d00000000000000000000000000000000000000000000000000000000000000815250858585614c53565b97505050505050505090565b614b0961508b565b600080614b146151e7565b600080861415614b5b576040805190810160405280600181526020017f30000000000000000000000000000000000000000000000000000000000000008152509450614c4a565b8593505b600084141515614b85578280600101935050600a84811515614b7d57fe5b049350614b5f565b82604051805910614b935750595b9080825280601f01601f191660200182016040525091506001830390505b600086141515614c4657600a86811515614bc757fe5b066030017f010000000000000000000000000000000000000000000000000000000000000002828280600190039350815181101515614c0257fe5b9060200101907effffffffffffffffffffffffffffffffffffffffffffffffffffffffffffff1916908160001a905350600a86811515614c3e57fe5b049550614bb1565b8194505b50505050919050565b614c5b61508b565b614c636151e7565b614c6b6151e7565b614c736151e7565b614c7b6151e7565b614c836151e7565b614c8b61508b565b614c936151e7565b6000808e98508d97508c96508b95508a94508451865188518a518c5101010101604051805910614cc05750595b9080825280601f01601f1916602001820160405250935083925060009150600090505b8851811015614d96578881815181101515614cfa57fe5b9060200101517f010000000000000000000000000000000000000000000000000000000000000090047f0100000000000000000000000000000000000000000000000000000000000000028383806001019450815181101515614d5957fe5b9060200101907effffffffffffffffffffffffffffffffffffffffffffffffffffffffffffff1916908160001a9053508080600101915050614ce3565b600090505b8751811015614e4e578781815181101515614db257fe5b9060200101517f010000000000000000000000000000000000000000000000000000000000000090047f0100000000000000000000000000000000000000000000000000000000000000028383806001019450815181101515614e1157fe5b9060200101907effffffffffffffffffffffffffffffffffffffffffffffffffffffffffffff1916908160001a9053508080600101915050614d9b565b600090505b8651811015614f06578681815181101515614e6a57fe5b9060200101517f010000000000000000000000000000000000000000000000000000000000000090047f0100000000000000000000000000000000000000000000000000000000000000028383806001019450815181101515614ec957fe5b9060200101907effffffffffffffffffffffffffffffffffffffffffffffffffffffffffffff1916908160001a9053508080600101915050614e53565b600090505b8551811015614fbe578581815181101515614f2257fe5b9060200101517f010000000000000000000000000000000000000000000000000000000000000090047f0100000000000000000000000000000000000000000000000000000000000000028383806001019450815181101515614f8157fe5b9060200101907effffffffffffffffffffffffffffffffffffffffffffffffffffffffffffff1916908160001a9053508080600101915050614f0b565b600090505b8451811015615076578481815181101515614fda57fe5b9060200101517f010000000000000000000000000000000000000000000000000000000000000090047f010000000000000000000000000000000000000000000000000000000000000002838380600101945081518110151561503957fe5b9060200101907effffffffffffffffffffffffffffffffffffffffffffffffffffffffffffff1916908160001a9053508080600101915050614fc3565b82995050505050505050505095945050505050565b602060405190810160405280600081525090565b828054600181600116156101000203166002900490600052602060002090601f016020900481019282601f106150e057805160ff191683800117855561510e565b8280016001018555821561510e579182015b8281111561510d5782518255916020019190600101906150f2565b5b50905061511b91906151fb565b5090565b81548183558181151161514c57600e0281600e02836000526020600020918201910161514b9190615220565b5b505050565b81548183558181151161517e57600c0281600c02836000526020600020918201910161517d9190615354565b5b505050565b8154818355818115116151b057600c0281600c0283600052602060002091820191016151af9190615454565b5b505050565b8154818355818115116151e2576004028160040283600052602060002091820191016151e19190615503565b5b505050565b602060405190810160405280600081525090565b61521d91905b80821115615219576000816000905550600101615201565b5090565b90565b61535191905b8082111561534d57600080820160006101000a81549073ffffffffffffffffffffffffffffffffffffffff02191690556001820160006152669190615579565b6002820160006152769190615579565b6003820160006152869190615579565b600482016000905560058201600090556006820160006101000a81549073ffffffffffffffffffffffffffffffffffffffff02191690556007820160006101000a81549073ffffffffffffffffffffffffffffffffffffffff02191690556008820160006152f49190615579565b6009820160006153049190615579565b600a820160006153149190615579565b600b820160006153249190615579565b600c820160006153349190615579565b600d820160006153449190615579565b50600e01615226565b5090565b90565b61545191905b8082111561544d57600080820160006101000a81549073ffffffffffffffffffffffffffffffffffffffff02191690556001820160006101000a81549073ffffffffffffffffffffffffffffffffffffffff0219169055600282016000905560038201600090556004820160006101000a81549060ff02191690556005820160009055600682016000905560078201600090556008820160006153fd9190615579565b6009820160006101000a81549073ffffffffffffffffffffffffffffffffffffffff0219169055600a820160006154349190615579565b600b820160006154449190615579565b50600c0161535a565b5090565b90565b61550091905b808211156154fc576000808201600090556001820160009055600282016000905560038201600090556004820160006154939190615579565b6005820160006154a39190615579565b6006820160006154b39190615579565b6007820160006154c39190615579565b60088201600090556009820160009055600a820160006154e39190615579565b600b820160006154f39190615579565b50600c0161545a565b5090565b90565b61557691905b8082111561557257600080820160006101000a81549073ffffffffffffffffffffffffffffffffffffffff02191690556001820160006155499190615579565b6002820160006155599190615579565b6003820160006155699190615579565b50600401615509565b5090565b90565b50805460018160011615610100020316600290046000825580601f1061559f57506155be565b601f0160209004906000526020600020908101906155bd91906151fb565b5b505600a165627a7a723058201ef046f4e72ef094f1d5f5387c57e7e5f00a477689b90d665da6e93cf6ee03120029",
  "source": "pragma solidity ^0.4.18;\n\ncontract StockLedger {\n\t// implementing the stock ledger (share register, share ledger,..)\n\t// for a SME\n\n\tstring public contract_name;\n\tuint public contract_version;\n\n\t// company\n\taddress public owner;\n\tstring public owner_pubkey; // asymmetric public key (rsa)\n\n\tstring public ledger_name;\n\tstring public cocrypted_ledger_description;\n\t\n\tuint public creation_date; // unix time\n\tuint public creation_block_date; // now in block number\n\t\n\taddress public replaced_by;\n\tuint public replacement_date; // unix time\n\tuint public replacement_block_date; // now in block number\n\t\n\tstring public next_orderid;\n\t\n\t// account list (key pairs created for this contract)\n\tAccount[] accounts;\n\t\n\tstruct Account {\n\t    address acct_address;\n\t    \n\t    string rsa_pubkey;\n\t    string ece_pubkey;\n\t    \n\t    string cocrypted_acct_privkey; \n\t}\n\n \t// shareholder list\n\tShareHolder[] shareholders;\n\t\n\tstruct ShareHolder {\n\t    address shldr_address;\n\t    string shldr_pubkey; // asymmetric public key (rsa)\n\t    \n\t    string cocrypted_shldr_privkey; //  asymmetric encryption with owner's public key\n\t    string cocrypted_shldr_identifier; // string that can uniquely identify shareholder (e.g. email)\n\t    \n\t    uint registration_date; // unix time\n\t    uint block_date; // now in block number\n\t    \n\t\taddress replacing; // in case, shareholder's private key is compromised or shareholder is registered after inscription by seller\n\t    \n\t    address creator; // can be owner, or a seller of shares\n\n\t    string crtcrypted_shldr_description_string; // symmetric encryption with creator's private key\n\t    string crtcrypted_shldr_identifier;\n\t\t\n\t    string shldrcrypted_shldr_description_string; // asymmetric encryption with shareholder's public key\n\t    string shldrcrypted_shldr_identifier;\n\t\t\n\t\tstring orderid; // unique, provided by contract next_orderid\n        string signature; // signature of orderid with creator's private key\n\t}\n\n    // issuances\n\tIssuance[] issuances;\n\t\n\tstruct Issuance {\n\t    uint numberofshares;\n\t    uint percentofcapital; // 20 000 represents 20% of capital for new shares\n\t    \n\t    uint issuance_date; // unix time\n\t    uint block_date; // now in block number\n\t    \n\t    string name;\n\t    string cocrypted_description; // symmetric encryption with owner's private key\n\t    \n\t    string issuance_type; // type of shares, options,..\n\t    string code; // code for issuance, could be ISIN code\n\t    \n\t    uint cancel_date; // unix time\n\t    uint cancel_block_date; // now in block number\n\t    \n\t\tstring orderid; // unique, provided by contract next_orderid\n        string signature; // signature of orderid with owner' address's private ke\n        \n\t}\n\t\n    // stock transactions\n\tStockTransaction[] public stocktransactions;\n\n\tstruct StockTransaction {\n\t\taddress from;\n\t\taddress to;\n\t\t\n\t\tuint transactiondate; // unix time\n\t\tuint block_date; \n\t\t\n\t\tuint8 nature; // 0 creation, 1 registered transfer (reserved to owner), 2 destruction, above 10 freely defined (e.g. 11 signed endorsement, 12 withdrawal/repurchase,..)\n\t\t\n\t\tuint issuanceindex; // issuance number is 1 based\n        \n\t\tuint numberofshares;\n\t\t\n\t\tuint consideration;\n\t\tstring currency;\n\t\t\n\t\taddress creator;\n\t\t\n\t\tstring orderid; // unique, provided by contract next_orderid\n        string signature; // signature of orderid with from' address's private key\n\t}\n\n\t// constructor\n\tfunction StockLedger(address _owner, string _owner_pubkey, string _crtcrypted_owner_identifier, string _ledger_name, string _cocrypted_ledger_description) public {\n\t\tcontract_name = \"stockledger\";\n\t\tcontract_version = 20180101;\n\t\t\n\t\treplaced_by = address(0);\n\t\t\n\t\towner = _owner;\n\t\towner_pubkey = _owner_pubkey;\n\t\t\n\t\tledger_name = _ledger_name;\n\t\tcocrypted_ledger_description = _cocrypted_ledger_description;\n\t\t\n\t\tshareholders.length = 1; // company as initial holder of shares\n\t\t\n        ShareHolder storage __shldr = shareholders[0] ;\n        \n        __shldr.shldr_address = _owner;\n        __shldr.shldr_pubkey = _owner_pubkey;\n        __shldr.cocrypted_shldr_privkey = \"0x\"; // we do not store owner's private key\n        __shldr.cocrypted_shldr_identifier = \"0x\";\n        \n        __shldr.replacing = 0x0;\n        \n        __shldr.creator = _owner;\n        __shldr.crtcrypted_shldr_description_string = \"0x\"; \n        __shldr.crtcrypted_shldr_identifier = _crtcrypted_owner_identifier;\n        \n        __shldr.shldrcrypted_shldr_description_string = \"0x\";\n        __shldr.shldrcrypted_shldr_identifier = \"0x\";\n\t\t\n        __shldr.orderid = \"1\";\n \t\t__shldr.signature = \"0x\";\n\n\t\tissuances.length = 0;\n\t\t\n        stocktransactions.length = 0;\n        \n\t\tnext_orderid = newNextOrderId();\n\t}\n\t\n\t// contract life cycle\n\tfunction reclaimContractBalance() public payable returns (bool success) {\n\t    // if balance is positive, send ethers to owner\n\t    if (this.balance > 0) {\n\t        owner.transfer(this.balance);\n\t        \n\t        return true;\n\t    }\n\t    \n\t    return false;\n\t}\n\t\n\n\t// registered accounts (self registration)\n\tfunction registerAccount(address _acct_address, string _rsa_pubkey, string _ece_pubkey, string _cocrypted_acct_privkey) public payable returns (uint _acctindex) {\n\t    int _acct_number = this.findAccountNumber(_acct_address);\n\t    require(_acct_number == -1); // not already in the list\n\n\t    uint __current_number_of_accounts = accounts.length;\n\n\t    accounts.length = __current_number_of_accounts + 1; // grow the list\n\t    \n        Account storage __acct = accounts[__current_number_of_accounts];\n       \n        __acct.acct_address = _acct_address;\n        __acct.rsa_pubkey = _rsa_pubkey;\n        __acct.ece_pubkey = _ece_pubkey;\n        __acct.cocrypted_acct_privkey = _cocrypted_acct_privkey;\n       \n \t    _acctindex = __current_number_of_accounts;\n\t}\n\n\tfunction getAccountCount() public view returns (uint _count) {\n\t    _count = accounts.length;\n\t}\n\t\n\tfunction getAccountAt(uint _index) public view returns (address _acct_address, string _rsa_pubkey, string _ece_pubkey, string _cocrypted_acct_privkey) {\n\t    uint __current_number_of_accounts = accounts.length;\n\t    \n\t    require((_index >= 0) && (_index < __current_number_of_accounts));\n\t    \n\t    Account storage __acct = accounts[_index];\n\t    \n        _acct_address = __acct.acct_address;\n        _rsa_pubkey = __acct.rsa_pubkey;\n        _ece_pubkey = __acct.ece_pubkey;\n        _cocrypted_acct_privkey = __acct.cocrypted_acct_privkey;\n    }\n\t\n\tfunction findAccountNumber(address _acct_address) public view returns (int _number) {\n\t    _number = -1;\n\t    \n\t    for (uint i = 0; i < accounts.length; i++) {\n\t        Account storage __acct = accounts[i];\n\t        \n\t        if (__acct.acct_address == _acct_address) {\n\t             _number = int(i);\n\t             \n\t             break;\n\t        }\n\t    }\n\t}\n\t\n\t// registered shareholders (registration by owner or sellers)\n\tfunction registerShareHolder(address _shldr_address, string _shldr_pubkey, \n\t\t\t\t\t\t\t\tstring _cocrypted_shldr_privkey, string _cocrypted_shldr_identifier, uint _registration_date, \n\t\t\t\t\t\t\t\taddress _creator, string _crtcrypted_shldr_description_string, string _crtcrypted_shldr_identifier, \n\t\t\t\t\t\t\t\tstring _orderid, string _signature,\n\t\t\t\t\t\t\t\tstring _shldrcrypted_shldr_string, string _shldrcrypted_shldr_identifier) public payable returns (uint _shldrindex) {\n\t    // done by the owner of the ledger, or a shareholder selling their shares\n\n\t    require(stringsEqual(next_orderid, _orderid));\n\t    next_orderid = newNextOrderId();\n\t    \n\t    uint __current_number_of_shareholders = shareholders.length;\n\t    \n\t    /*\n\t    // COMPILER PROBLEMS 'stack is too deep'\n\t    int _acct_number = this.findAccountNumber(_shldr_address);\n\t    require(_acct_number != -1); // already in account list\n\t    \n\t    Account storage __acct = accounts[uint(_acct_number)];\n\n\t    int _shldr_number = this.findShareHolderNumber(_shldr_address);\n\t    require(_shldr_number == -1); // not already in the list\n\t    */\n\t    \n\t    shareholders.length = __current_number_of_shareholders + 1; // grow the list\n\t    \n        ShareHolder storage __shldr = shareholders[__current_number_of_shareholders];\n        \n        __shldr.shldr_address = _shldr_address;\n        __shldr.shldr_pubkey = _shldr_pubkey;\n        \n        __shldr.cocrypted_shldr_privkey = _cocrypted_shldr_privkey;\n        __shldr.cocrypted_shldr_identifier = _cocrypted_shldr_identifier;\n\n       \n        __shldr.registration_date = _registration_date;\n        __shldr.block_date = now;\n        \n        __shldr.replacing = 0x0;\n        \n        __shldr.creator = _creator;\n        __shldr.crtcrypted_shldr_description_string = _crtcrypted_shldr_description_string;\n        __shldr.crtcrypted_shldr_identifier = _crtcrypted_shldr_identifier;\n\t\t\n        __shldr.orderid = _orderid;\n        __shldr.signature = _signature;\n        \n         \n        __shldr.shldrcrypted_shldr_description_string = _shldrcrypted_shldr_string;\n        __shldr.shldrcrypted_shldr_identifier = _shldrcrypted_shldr_identifier;\n        \n        _shldrindex = __current_number_of_shareholders;\n\t}\n\t\n\tfunction getShareHolderCount() public view returns (uint _count) {\n\t    _count = shareholders.length;\n\t}\n\t\n\tfunction getShareHolderAt(uint _index) public view returns (address _shldr_address, string _shldr_pubkey, string _cocrypted_shldr_privkey, string _cocrypted_shldr_identifier, uint _registration_date, uint _block_date, \n\t                                                            address _replacing) {\n\t    uint __current_number_of_shareholders = shareholders.length;\n\t    \n\t    require((_index >= 0) && (_index < __current_number_of_shareholders));\n\t    \n\t    ShareHolder storage __shldr = shareholders[_index];\n\t    \n\t    _shldr_address = __shldr.shldr_address;\n\t    _shldr_pubkey = __shldr.shldr_pubkey;\n\t    \n\t    _cocrypted_shldr_privkey = __shldr.cocrypted_shldr_privkey;\n\t    _cocrypted_shldr_identifier = __shldr.cocrypted_shldr_identifier;\n\t    \n\t    _registration_date = __shldr.registration_date; // unix time\n\t    _block_date = __shldr.block_date; // now in block number\n\t    \n\t\t_replacing = __shldr.replacing;\n\n\t}\n\t\n\tfunction getShareHolderExtraAt(uint _index) public view returns (address _creator, string _crtcrypted_shldr_description_string, string _crtcrypted_shldr_identifier, string _orderid, string _signature, string _shldrcrypted_shldr_description_string, string _shldrcrypted_shldr_identifier) {\n\t   // because of \"Stack too deep, try using less variables.\"\n\t    uint __current_number_of_shareholders = shareholders.length;\n\t    \n\t    require((_index >= 0) && (_index < __current_number_of_shareholders));\n\t    \n\t    ShareHolder storage __shldr = shareholders[_index];\n\t    \n         _creator = __shldr.creator;\n        _crtcrypted_shldr_description_string = __shldr.crtcrypted_shldr_description_string;\n        _crtcrypted_shldr_identifier = __shldr.crtcrypted_shldr_identifier;\n\n        _shldrcrypted_shldr_description_string = __shldr.shldrcrypted_shldr_description_string;\n        _shldrcrypted_shldr_identifier = __shldr.shldrcrypted_shldr_identifier;\n\t\t\n\t\t_orderid = __shldr.orderid;\n\t\t_signature = __shldr.signature;\n\t}\n\t\n\t/*function registerShareHolderReplacementAt(uint _index, address _shldr_address, string _shldr_pubkey, string _cocrypted_shldr_string,\n\t\t\t\t\t\t\t\t\t\t\t string _cocrypted_shldr_identifier, \n\t\t\t\t\t\t\t\t\t\t\t uint _shldr_registration_date, address _creator, string _crtcrypted_shldr_description_string, string _crtcrypted_shldr_identifier, \n\t\t\t\t\t\t\t\t\t\t\t string _orderid, string _signature,\n\t\t\t\t\t\t\t\t\t\t\t string _shldrcrypted_shldr_string, string _shldrcrypted_shldr_identifier) public payable returns (uint _shldrindex) {\n\t    // replace a shareholder entry by a linked entry (e.g. in case shareholder has lost their key or key has been stolen)\n\t    \n\t    require(stringsEqual(next_orderid, _orderid));\n\t    next_orderid = newNextOrderId();\n\t    \n\t    // COMPILER PROBLEMS 'stack is too deep'\n\t    ShareHolder storage __shldr = shareholders[_index];\n\t    \n\t    require((__shldr.creator == _creator) || (_creator == owner)); // can only by creator of original shareholder, or by owner\n\t    \n\t    _shldrindex = registerShareHolder(_shldr_address, _shldr_pubkey, _cocrypted_shldr_string, _cocrypted_shldr_identifier, _shldr_registration_date, _creator, _crtcrypted_shldr_description_string, _crtcrypted_shldr_identifier, _orderid, _signature, _shldrcrypted_shldr_string, _shldrcrypted_shldr_identifier);\n\t    \n\t    \n\t    ShareHolder storage __newshldr = shareholders[_shldrindex];\n\t    __shldr.replacing = __shldr.shldr_address;\n\n\t}*/\n\t\n\tfunction findShareHolderNumber(address _shldr_address) public view returns (int _number) {\n\t    _number = -1;\n\t    \n\t    for (uint i = 0; i < shareholders.length; i++) {\n\t        ShareHolder storage __shldr = shareholders[i];\n\t        \n\t        if (__shldr.shldr_address == _shldr_address) {\n\t             _number = int(i);\n\t             \n\t             break;\n\t        }\n\t    }\n\t}\n\t\n\n\t// issuances (registered by owner)\n\tfunction registerIssuance(string _name, string _cocrypted_description, uint _numberofshares, uint _percentofcapital, \n\t                            uint _issuance_unixtime, string _orderid, string _signature,\n\t                            string _issuance_type, string _code) payable public returns (uint _issuancenumber) {\n\t    // done by the owner of the ledger\n\n\t    require(stringsEqual(next_orderid, _orderid));\n\t    next_orderid = newNextOrderId();\n\t    \n\t    uint __numberofissuances = issuances.length;\n\t    \n   \t    // add a new issuance\n    \tissuances.length = __numberofissuances + 1;\n    \tIssuance storage __issu = issuances[__numberofissuances];\n\t    \n\t\t\n\t\t__issu.name = _name;\n\t\t__issu.cocrypted_description = _cocrypted_description;\n\t\t\n\t\t__issu.numberofshares = _numberofshares;\n\t\t__issu.percentofcapital = _percentofcapital;\n\t\t\n\t\t__issu.issuance_type = _issuance_type;\n\t\t__issu.code = _code;\n\t\t\n\t\t__issu.issuance_date = _issuance_unixtime;\n\t\t__issu.block_date = now;\n\n        __issu.orderid = _orderid;\n        __issu.signature = _signature;\n\n       // initial creation of shares\n        uint __numberoftransactions = stocktransactions.length;\n        stocktransactions.length = __numberoftransactions + 1;\n        \n        StockTransaction storage __txn = stocktransactions[__numberoftransactions];\n        \n        __txn.nature = 0;\n        \n        __txn.from = owner;\n        __txn.to = owner;\n        \n        __txn.transactiondate = _issuance_unixtime;\n        __txn.block_date = now;\n        \n        __txn.issuanceindex = __numberofissuances;\n        \n        __txn.creator = owner;\n \n        __txn.orderid = _orderid;\n        __txn.signature = _signature;\n       \n        __txn.numberofshares = _numberofshares;\n        \n        __txn.consideration = 0;\n        __txn.currency = '-';\n\n        _issuancenumber = __numberofissuances + 1;\n\t}\n\t\n\tfunction registerIssuanceResize(uint _issuancenumber, uint _newnumberofshares, string _orderid, uint _transactiondate, string _signature) payable public returns (uint _txnumber) {\n\t    // done by the owner of the ledger\n\t    \n \t    require(stringsEqual(next_orderid, _orderid));\n\t    next_orderid = newNextOrderId();\n\t    \n        uint __issuanceindex = _issuancenumber -1; // 1 based\n \n        require(__issuanceindex < issuances.length); \t\n        \n        Issuance storage __issu = issuances[__issuanceindex];\n        \n        uint __current_numberofshares = __issu.numberofshares;\n        \n  \t    require( _newnumberofshares != __current_numberofshares);\n       \n        uint __numberoftransactions = stocktransactions.length;\n        StockTransaction storage __txn = stocktransactions[0];\n        \n       if (_newnumberofshares < __current_numberofshares) {\n \t        // company must still detain sufficient shares\n \t        // to allow the resize\n \t        uint __owner_position = getShareHolderPosition(owner, _issuancenumber);\n \t        \n \t        require(__owner_position + _newnumberofshares >= __current_numberofshares);\n \t        \n           // destruction of shares\n            stocktransactions.length = __numberoftransactions + 1;\n            \n            __txn = stocktransactions[__numberoftransactions];\n            \n            __txn.nature = 2; // destruction\n            \n            __txn.from = owner;\n            __txn.to = owner;\n            \n            __txn.transactiondate = _transactiondate;\n            __txn.block_date = now;\n            \n            __txn.issuanceindex = __issuanceindex;\n            \n            __txn.creator = owner;\n            \n            __txn.orderid = _orderid;\n            __txn.signature = _signature;\n            \n            __txn.numberofshares = __current_numberofshares - _newnumberofshares;\n            \n            __txn.consideration = 0;\n            __txn.currency = '-';\n            \n            _txnumber = __numberoftransactions;\n           \n        }\n        else {\n            // additional creation of shares\n             stocktransactions.length = __numberoftransactions + 1;\n            \n            __txn = stocktransactions[__numberoftransactions];\n            \n            __txn.nature = 0;\n            \n            __txn.from = owner;\n            __txn.to = owner;\n            \n            __txn.transactiondate = _transactiondate;\n            __txn.block_date = now;\n            \n            __txn.issuanceindex = __issuanceindex; \n            \n            __txn.creator = owner;\n            \n            __txn.orderid = _orderid;\n            __txn.signature = _signature;\n            \n            __txn.numberofshares = _newnumberofshares - __current_numberofshares;\n            \n            __txn.consideration = 0;\n            __txn.currency = '-';\n            \n            _txnumber = __numberoftransactions;\n      }\n\t    \n\t}\n\t\n\tfunction getIssuanceAt(uint _index) public view returns (uint _numberofshares, uint _percentofcapital, uint _issuance_date,  uint _block_date, \n\t                            string _name, string _cocrypted_description, uint _cancel_date, uint _cancel_block_date, string _orderid, string _signature) {\n\t    uint __current_number_of_issuances = issuances.length;\n\t    \n\t    require((_index >= 0) && (_index < __current_number_of_issuances));\n\t    \n\t    Issuance storage __issu = issuances[_index];\n\t    \n \t    _numberofshares = __issu.numberofshares;\n\t    _percentofcapital = __issu.percentofcapital; // 20000 represents 20% of capital for new shares\n\t    \n\t    _issuance_date = __issu.issuance_date; // unix time\n\t    _block_date = __issu.block_date; // now in block number\n\t    \n\t    _name = __issu.name;\n\t    _cocrypted_description = __issu.cocrypted_description;\n\t    \n\t    _cancel_date = __issu.cancel_date; // unix time\n\t    _cancel_block_date = __issu.cancel_block_date; // now in block number\n\t    \n\t    _orderid = __issu.orderid;\n\t    _signature = __issu.signature;\n\t}\n\t\n\tfunction getIssuanceExtraAt(uint _index) public view returns (string _issuance_type, string _code) {\n\t    uint __current_number_of_issuances = issuances.length;\n\n\t    require((_index >= 0) && (_index < __current_number_of_issuances));\n\t    \n\t    Issuance storage __issu = issuances[_index];\n\t    \n\t\t_issuance_type = __issu.issuance_type;\n\t\t_code = __issu.code;\n\t\t\n\t }\n\t                            \n\tfunction getIssuanceCount() public view returns (uint _count) {\n\t    _count = issuances.length;\n\t}\n\t\n\tfunction getShareHolderPosition(address _shldr_address, uint _issuancenumber) public view returns (uint _position) {\n\t    _position = 0;\n\t    \n       uint __issuanceindex = _issuancenumber -1; // 1 based\n       \n       require(__issuanceindex < issuances.length); \n\n\t    for (uint i = 0; i < stocktransactions.length; i++) {\n\t        StockTransaction storage __txn = stocktransactions[i];\n\t        \n\t        if (__txn.issuanceindex == __issuanceindex) {\n\t            \n\t            if (__txn.nature == 0) {\n\t                if ((_shldr_address == owner) && (__txn.to == _shldr_address)) {\n\t                   _position = _position + __txn.numberofshares; \n\t                }\n\t            }\n\t            else if (__txn.nature == 1) {\n   \t                if (__txn.from == _shldr_address) {\n    \t                _position = _position - __txn.numberofshares;\n    \t            }\n    \t             \n    \t            if (__txn.to == _shldr_address) {\n    \t                _position = _position + __txn.numberofshares;\n    \t            }\n\t                \n\t            }\n\n\t        }\n\t    }\n\t    \n\t}\n\t\n\tfunction registerTransaction(uint _numberofshares, address _from, address _to, uint8 _nature, uint _issuancenumber, string _orderid, uint _transaction_unixtime, uint _consideration, string _currency, address _creator, string _signature) payable public returns (uint _txnumber) {\n\t    //require(tx.origin == owner); // done by the owner of the ledger\n\t    \n\t    require(stringsEqual(next_orderid, _orderid));\n\t    next_orderid = newNextOrderId();\n\t    \n\t    if (_nature <= 10) {\n\t        // 1 to 10 (creation, registered transfers, desctruction,..) reserved to owner\n\t        require(_creator == owner);\n\t        \n\t        // contract does not control position\n\t        // because it can not check authentication of transactions\n \t    }\n \t    else {\n\t        require(_creator == _from);\n\t        \n\t        // contract does not control short selling\n\t        // because it can not check authentication of  transactions\n  \t    }\n\t    \n        uint __numberoftransactions = stocktransactions.length;\n        stocktransactions.length = __numberoftransactions + 1;\n\n        StockTransaction storage __txn = stocktransactions[__numberoftransactions];\n        \n        __txn.nature = _nature;\n        \n        __txn.from = _from;\n        __txn.to = _to;\n        \n        __txn.transactiondate = _transaction_unixtime;\n        __txn.block_date = now;\n        \n        uint __issuanceindex = _issuancenumber -1; // 1 based\n        \n        require(__issuanceindex < issuances.length); \n        __txn.issuanceindex = __issuanceindex; \n        \n        __txn.creator = _creator;\n        \n        __txn.orderid = _orderid;\n        __txn.signature= _signature;\n        \n        __txn.numberofshares = _numberofshares;\n        \n        __txn.consideration = _consideration;\n        __txn.currency = _currency;\n\n\t    _txnumber = __numberoftransactions + 1;\n\t}\n\t\n\tfunction findTransaction(string _orderid) public view returns (int _txindex) {\n\t    _txindex = -1;\n\t    \n\t    for (uint i = 0; i < stocktransactions.length; i++) {\n\t        StockTransaction storage __txn = stocktransactions[i];\n\t        \n\t        if (stringsEqual(__txn.orderid, _orderid)) {\n\t             _txindex = int(i);\n\t             \n\t             break;\n\t        }\n\t    }\n\t    \n\t}\n\t\n\tfunction getTransactionAt(uint _index) public view returns (address _from, address _to,\tuint _transactiondate, uint _block_date, uint8 _nature, uint _issuancenumber, string _orderid, uint _numberofshares, uint _consideration, string _currency, address _creator, string _signature) {\n\t    uint __current_number_of_transactions = stocktransactions.length;\n\t    \n\t    require((_index >= 0) && (_index <  __current_number_of_transactions));\n\t    \n\t    StockTransaction storage __txn = stocktransactions[_index];\n\t    \n\t\t_from = __txn.from;\n\t\t_to = __txn.to;\n\t\t\n\t\t_transactiondate = __txn.transactiondate; // unix time\n\t\t_block_date = __txn.block_date; \n\t\t\n\t\t_nature = __txn.nature; // 0 creation, 1 transfer, 2 pledge, 3 redeem\n\t\t\n\t\t_issuancenumber = __txn.issuanceindex + 1; // number is 1 based\n\t\t\n\t\t\n\t\t_creator = __txn.creator; \n\t\t_orderid = __txn.orderid; // unique, provided by caller\n\t\t_signature = __txn.signature;\n\n\t\t_numberofshares = __txn.numberofshares;\n\t\t\n\t\t_consideration = __txn.consideration;\n\t\t_currency = __txn.currency;\n\t}\n\t\n\tfunction getTransactionCount() public view returns (uint _count) {\n\t    _count = stocktransactions.length;\n\t}\n\t\n\tfunction newNextOrderId() internal view returns (string) {\n\t    string memory __time_string = uintToString (now);\n\t    \n        uint __current_number_of_shareholders = shareholders.length;\n        uint __numberofissuances = issuances.length;\n        uint __numberoftransactions = stocktransactions.length;\n\t    \n\t    string memory __shldr_string = uintToString(__current_number_of_shareholders);\n\t    string memory __issu_string = uintToString(__numberofissuances);\n\t    string memory __txn_string = uintToString(__numberoftransactions);\n\t    \n\t    return strConcat(__time_string, \"-\", __shldr_string,__issu_string, __txn_string);\n\t}\n\t\n\n    // utility\t\n\tfunction stringsEqual(string storage _a, string memory _b) internal view returns (bool) {\n\t\tbytes storage a = bytes(_a);\n\t\tbytes memory b = bytes(_b);\n\t\tif (a.length != b.length)\n\t\t\treturn false;\n\t\t// @todo unroll this loop\n\t\tfor (uint i = 0; i < a.length; i ++)\n\t\t\tif (a[i] != b[i])\n\t\t\t\treturn false;\n\t\treturn true;\n\t}\n\t\n\tfunction strConcat(string _a, string _b, string _c, string _d, string _e) internal pure returns (string){\n        bytes memory _ba = bytes(_a);\n        bytes memory _bb = bytes(_b);\n        bytes memory _bc = bytes(_c);\n        bytes memory _bd = bytes(_d);\n        bytes memory _be = bytes(_e);\n        string memory abcde = new string(_ba.length + _bb.length + _bc.length + _bd.length + _be.length);\n        bytes memory babcde = bytes(abcde);\n        uint k = 0;\n        for (uint i = 0; i < _ba.length; i++) babcde[k++] = _ba[i];\n        for (i = 0; i < _bb.length; i++) babcde[k++] = _bb[i];\n        for (i = 0; i < _bc.length; i++) babcde[k++] = _bc[i];\n        for (i = 0; i < _bd.length; i++) babcde[k++] = _bd[i];\n        for (i = 0; i < _be.length; i++) babcde[k++] = _be[i];\n        return string(babcde);\n    }\n    \n    function uintToString (uint _ui) internal pure returns (string) {\n         if (_ui == 0) return \"0\";\n        uint j = _ui;\n        uint len;\n        while (j != 0){\n            len++;\n            j /= 10;\n        }\n        bytes memory bstr = new bytes(len);\n        uint k = len - 1;\n        while (_ui != 0){\n            bstr[k--] = byte(48 + _ui % 10);\n            _ui /= 10;\n        }\n        return string(bstr);\n    }\n\n    function uintToBytes32(uint256 _ui) internal pure returns (bytes32) {\n        return bytes32(_ui);\n    }\n    \n    function bytes32ToString (bytes32 _data) internal pure returns (string) {\n        bytes memory bytesString = new bytes(32);\n        for (uint j=0; j<32; j++) {\n            byte char = byte(bytes32(uint(_data) * 2 ** (8 * j)));\n            if (char != 0) {\n                bytesString[j] = char;\n            }\n        }\n        return string(bytesString);\n    }\n\n}",
  "sourcePath": "/home/frederic/home/p2pmoney-dev/var/lib/git/repos/solidity/ethereum_securities/contracts/StockLedger.sol",
  "compiler": {
    "name": "solc",
    "version": "0.4.18+commit.9cf6e910.Emscripten.clang"
  },
  "schemaVersion": "1.0.1",
  "updatedAt": "2018-02-27T17:26:48.300Z"
}